{
  "abi": [
    {
      "inputs": [
        {
          "internalType": "string",
          "name": "_symbol",
          "type": "string"
        },
        {
          "internalType": "uint256",
          "name": "_start",
          "type": "uint256"
        },
        {
          "internalType": "uint256",
          "name": "_end",
          "type": "uint256"
        },
        {
          "internalType": "uint8",
          "name": "_numOfVotesPerUser",
          "type": "uint8"
        }
      ],
      "stateMutability": "nonpayable",
      "type": "constructor"
    },
    {
      "anonymous": false,
      "inputs": [
        {
          "indexed": true,
          "internalType": "address",
          "name": "previousOwner",
          "type": "address"
        },
        {
          "indexed": true,
          "internalType": "address",
          "name": "newOwner",
          "type": "address"
        }
      ],
      "name": "OwnershipTransferred",
      "type": "event"
    },
    {
      "inputs": [
        {
          "internalType": "string",
          "name": "choice",
          "type": "string"
        }
      ],
      "name": "addChoice",
      "outputs": [],
      "stateMutability": "nonpayable",
      "type": "function"
    },
    {
      "inputs": [
        {
          "internalType": "uint256",
          "name": "",
          "type": "uint256"
        }
      ],
      "name": "choices",
      "outputs": [
        {
          "internalType": "string",
          "name": "",
          "type": "string"
        }
      ],
      "stateMutability": "view",
      "type": "function"
    },
    {
      "inputs": [
        {
          "internalType": "string",
          "name": "",
          "type": "string"
        }
      ],
      "name": "choicesMap",
      "outputs": [
        {
          "internalType": "bool",
          "name": "",
          "type": "bool"
        }
      ],
      "stateMutability": "view",
      "type": "function"
    },
    {
      "inputs": [],
      "name": "end",
      "outputs": [
        {
          "internalType": "uint256",
          "name": "",
          "type": "uint256"
        }
      ],
      "stateMutability": "view",
      "type": "function"
    },
    {
      "inputs": [],
      "name": "getAllChoices",
      "outputs": [
        {
          "internalType": "string[]",
          "name": "",
          "type": "string[]"
        }
      ],
      "stateMutability": "view",
      "type": "function"
    },
    {
      "inputs": [],
      "name": "getNumOfVotesForUser",
      "outputs": [
        {
          "internalType": "uint8",
          "name": "",
          "type": "uint8"
        }
      ],
      "stateMutability": "view",
      "type": "function"
    },
    {
      "inputs": [],
      "name": "getResults",
      "outputs": [
        {
          "internalType": "string",
          "name": "",
          "type": "string"
        }
      ],
      "stateMutability": "view",
      "type": "function"
    },
    {
      "inputs": [],
      "name": "numOfVotesPerUser",
      "outputs": [
        {
          "internalType": "uint8",
          "name": "",
          "type": "uint8"
        }
      ],
      "stateMutability": "view",
      "type": "function"
    },
    {
      "inputs": [],
      "name": "owner",
      "outputs": [
        {
          "internalType": "address",
          "name": "",
          "type": "address"
        }
      ],
      "stateMutability": "view",
      "type": "function"
    },
    {
      "inputs": [],
      "name": "renounceOwnership",
      "outputs": [],
      "stateMutability": "nonpayable",
      "type": "function"
    },
    {
      "inputs": [],
      "name": "start",
      "outputs": [
        {
          "internalType": "uint256",
          "name": "",
          "type": "uint256"
        }
      ],
      "stateMutability": "view",
      "type": "function"
    },
    {
      "inputs": [],
      "name": "symbol",
      "outputs": [
        {
          "internalType": "string",
          "name": "",
          "type": "string"
        }
      ],
      "stateMutability": "view",
      "type": "function"
    },
    {
      "inputs": [
        {
          "internalType": "address",
          "name": "newOwner",
          "type": "address"
        }
      ],
      "name": "transferOwnership",
      "outputs": [],
      "stateMutability": "nonpayable",
      "type": "function"
    },
    {
      "inputs": [
        {
          "internalType": "string",
          "name": "choice",
          "type": "string"
        },
        {
          "internalType": "uint8",
          "name": "numberOfVotes",
          "type": "uint8"
        }
      ],
      "name": "vote",
      "outputs": [],
      "stateMutability": "nonpayable",
      "type": "function"
    },
    {
      "inputs": [
        {
          "internalType": "string",
          "name": "",
          "type": "string"
        }
      ],
      "name": "votesPerChoice",
      "outputs": [
        {
          "internalType": "uint24",
          "name": "",
          "type": "uint24"
        }
      ],
      "stateMutability": "view",
      "type": "function"
    },
    {
      "inputs": [
        {
          "internalType": "address",
          "name": "",
          "type": "address"
        }
      ],
      "name": "votesPerUser",
      "outputs": [
        {
          "internalType": "uint8",
          "name": "",
          "type": "uint8"
        }
      ],
      "stateMutability": "view",
      "type": "function"
    }
  ],
  "bytecode": "60806040523480156200001157600080fd5b50604051620014773803806200147783398101604081905262000034916200020c565b6200003f33620000e9565b60008160ff1611620000b05760405162461bcd60e51b815260206004820152603060248201527f4e756d626572206f6620766f746573207065722075736572206d75737420626560448201526f1033b932b0ba32b9103a3430b710181760811b606482015260840160405180910390fd5b8351620000c590600190602087019062000139565b506002929092556003556004805460ff191660ff909216919091179055506200034e565b600080546001600160a01b038381166001600160a01b0319831681178455604051919092169283917f8be0079c531659141344cd1fd0a4f28419497f9722a3daafe3b4186f6b6457e09190a35050565b828054620001479062000311565b90600052602060002090601f0160209004810192826200016b5760008555620001b6565b82601f106200018657805160ff1916838001178555620001b6565b82800160010185558215620001b6579182015b82811115620001b657825182559160200191906001019062000199565b50620001c4929150620001c8565b5090565b5b80821115620001c45760008155600101620001c9565b634e487b7160e01b600052604160045260246000fd5b805160ff811681146200020757600080fd5b919050565b600080600080608085870312156200022357600080fd5b84516001600160401b03808211156200023b57600080fd5b818701915087601f8301126200025057600080fd5b815181811115620002655762000265620001df565b604051601f8201601f19908116603f01168101908382118183101715620002905762000290620001df565b81604052828152602093508a84848701011115620002ad57600080fd5b600091505b82821015620002d15784820184015181830185015290830190620002b2565b82821115620002e35760008484830101525b8098505050508087015194505050604085015191506200030660608601620001f5565b905092959194509250565b600181811c908216806200032657607f821691505b602082108114156200034857634e487b7160e01b600052602260045260246000fd5b50919050565b611119806200035e6000396000f3fe608060405234801561001057600080fd5b50600436106101005760003560e01c806395d89b4111610097578063e97995dc11610066578063e97995dc14610261578063efbe1c1c14610276578063f2fde38b1461027f578063f6fd7fde1461029257600080fd5b806395d89b4114610212578063be9a65551461021a578063bf247f7914610231578063dde06f491461023e57600080fd5b8063715018a6116100d3578063715018a6146101985780638da5cb5b146101a057806390ca27f3146101bb57806391623640146101ce57600080fd5b806322517a16146101055780632aed8692146101485780634717f97c1461016e5780635fa520bb14610183575b600080fd5b610133610113366004610c7a565b805160208183018101805160078252928201919093012091525460ff1681565b60405190151581526020015b60405180910390f35b3360009081526005602052604090205460ff165b60405160ff909116815260200161013f565b6101766102a5565b60405161013f9190610d13565b610196610191366004610c7a565b61040d565b005b610196610537565b6000546040516001600160a01b03909116815260200161013f565b6101966101c9366004610d2d565b61056d565b6101fe6101dc366004610c7a565b805160208183018101805160088252928201919093012091525462ffffff1681565b60405162ffffff909116815260200161013f565b610176610763565b61022360025481565b60405190815260200161013f565b60045461015c9060ff1681565b61015c61024c366004610d85565b60056020526000908152604090205460ff1681565b6102696107f1565b60405161013f9190610dae565b61022360035481565b61019661028d366004610d85565b6108ca565b6101766102a0366004610e10565b610965565b60408051602081019091526000808252606091905b600654811015610407576103f382600683815481106102db576102db610e29565b9060005260206000200180546102f090610e3f565b80601f016020809104026020016040519081016040528092919081815260200182805461031c90610e3f565b80156103695780601f1061033e57610100808354040283529160200191610369565b820191906000526020600020905b81548152906001019060200180831161034c57829003601f168201915b5050505050604051806040016040528060048152602001630101e9f160e51b8152506103d46008600687815481106103a3576103a3610e29565b906000526020600020016040516103ba9190610e74565b9081526040519081900360200190205462ffffff16610990565b604051806040016040528060018152602001600560f91b815250610ab9565b9150806103ff81610f26565b9150506102ba565b50919050565b6000546001600160a01b031633146104405760405162461bcd60e51b815260040161043790610f41565b60405180910390fd5b60035442106104615760405162461bcd60e51b815260040161043790610f76565b60025442106104be5760405162461bcd60e51b8152602060048201526024808201527f5468697320766f74696e672073657373696f6e20616c726561647920737461726044820152633a32b21760e11b6064820152608401610437565b600680546001810182556000919091528151610501917ff652222313e28459528d920b65115c16c04f3efc82aaedc97be59f3f377c0d3f01906020840190610b3e565b5060016007826040516105149190610fb8565b908152604051908190036020019020805491151560ff1990921691909117905550565b6000546001600160a01b031633146105615760405162461bcd60e51b815260040161043790610f41565b61056b6000610aee565b565b600354421061058e5760405162461bcd60e51b815260040161043790610f76565b6002544210156105ef5760405162461bcd60e51b815260206004820152602660248201527f5468697320766f74696e672073657373696f6e20646964206e6f7420737461726044820152653a103cb2ba1760d11b6064820152608401610437565b6007826040516105ff9190610fb8565b9081526040519081900360200190205460ff166106505760405162461bcd60e51b815260206004820152600f60248201526e24b73b30b634b21031b437b4b1b29760891b6044820152606401610437565b6004543360009081526005602052604090205460ff9182169161067591849116610fd4565b60ff1611156106d15760405162461bcd60e51b815260206004820152602260248201527f4578636565646564206e756d626572206f6620766f7465732070657220757365604482015261391760f11b6064820152608401610437565b33600090815260056020526040812080548392906106f390849060ff16610fd4565b92506101000a81548160ff021916908360ff1602179055508060ff1660088360405161071f9190610fb8565b908152604051908190036020019020805460009061074390849062ffffff16610ff9565b92506101000a81548162ffffff021916908362ffffff1602179055505050565b6001805461077090610e3f565b80601f016020809104026020016040519081016040528092919081815260200182805461079c90610e3f565b80156107e95780601f106107be576101008083540402835291602001916107e9565b820191906000526020600020905b8154815290600101906020018083116107cc57829003601f168201915b505050505081565b60606006805480602002602001604051908101604052809291908181526020016000905b828210156108c157838290600052602060002001805461083490610e3f565b80601f016020809104026020016040519081016040528092919081815260200182805461086090610e3f565b80156108ad5780601f10610882576101008083540402835291602001916108ad565b820191906000526020600020905b81548152906001019060200180831161089057829003601f168201915b505050505081526020019060010190610815565b50505050905090565b6000546001600160a01b031633146108f45760405162461bcd60e51b815260040161043790610f41565b6001600160a01b0381166109595760405162461bcd60e51b815260206004820152602660248201527f4f776e61626c653a206e6577206f776e657220697320746865207a65726f206160448201526564647265737360d01b6064820152608401610437565b61096281610aee565b50565b6006818154811061097557600080fd5b90600052602060002001600091509050805461077090610e3f565b6060816109b45750506040805180820190915260018152600360fc1b602082015290565b8160005b81156109de57806109c881610f26565b91506109d79050600a83611020565b91506109b8565b60008167ffffffffffffffff8111156109f9576109f9610bd7565b6040519080825280601f01601f191660200182016040528015610a23576020820181803683370190505b509050815b8515610ab057610a39600182611042565b90506000610a48600a88611020565b610a5390600a611059565b610a5d9088611042565b610a68906030610fd4565b905060008160f81b905080848481518110610a8557610a85610e29565b60200101906001600160f81b031916908160001a905350610aa7600a89611020565b97505050610a28565b50949350505050565b60608585858585604051602001610ad4959493929190611078565b604051602081830303815290604052905095945050505050565b600080546001600160a01b038381166001600160a01b0319831681178455604051919092169283917f8be0079c531659141344cd1fd0a4f28419497f9722a3daafe3b4186f6b6457e09190a35050565b828054610b4a90610e3f565b90600052602060002090601f016020900481019282610b6c5760008555610bb2565b82601f10610b8557805160ff1916838001178555610bb2565b82800160010185558215610bb2579182015b82811115610bb2578251825591602001919060010190610b97565b50610bbe929150610bc2565b5090565b5b80821115610bbe5760008155600101610bc3565b634e487b7160e01b600052604160045260246000fd5b600082601f830112610bfe57600080fd5b813567ffffffffffffffff80821115610c1957610c19610bd7565b604051601f8301601f19908116603f01168101908282118183101715610c4157610c41610bd7565b81604052838152866020858801011115610c5a57600080fd5b836020870160208301376000602085830101528094505050505092915050565b600060208284031215610c8c57600080fd5b813567ffffffffffffffff811115610ca357600080fd5b610caf84828501610bed565b949350505050565b60005b83811015610cd2578181015183820152602001610cba565b83811115610ce1576000848401525b50505050565b60008151808452610cff816020860160208601610cb7565b601f01601f19169290920160200192915050565b602081526000610d266020830184610ce7565b9392505050565b60008060408385031215610d4057600080fd5b823567ffffffffffffffff811115610d5757600080fd5b610d6385828601610bed565b925050602083013560ff81168114610d7a57600080fd5b809150509250929050565b600060208284031215610d9757600080fd5b81356001600160a01b0381168114610d2657600080fd5b6000602080830181845280855180835260408601915060408160051b870101925083870160005b82811015610e0357603f19888603018452610df1858351610ce7565b94509285019290850190600101610dd5565b5092979650505050505050565b600060208284031215610e2257600080fd5b5035919050565b634e487b7160e01b600052603260045260246000fd5b600181811c90821680610e5357607f821691505b6020821081141561040757634e487b7160e01b600052602260045260246000fd5b600080835481600182811c915080831680610e9057607f831692505b6020808410821415610eb057634e487b7160e01b86526022600452602486fd5b818015610ec45760018114610ed557610f02565b60ff19861689528489019650610f02565b60008a81526020902060005b86811015610efa5781548b820152908501908301610ee1565b505084890196505b509498975050505050505050565b634e487b7160e01b600052601160045260246000fd5b6000600019821415610f3a57610f3a610f10565b5060010190565b6020808252818101527f4f776e61626c653a2063616c6c6572206973206e6f7420746865206f776e6572604082015260600190565b60208082526022908201527f5468697320766f74696e672073657373696f6e20616c726561647920656e6465604082015261321760f11b606082015260800190565b60008251610fca818460208701610cb7565b9190910192915050565b600060ff821660ff84168060ff03821115610ff157610ff1610f10565b019392505050565b600062ffffff80831681851680830382111561101757611017610f10565b01949350505050565b60008261103d57634e487b7160e01b600052601260045260246000fd5b500490565b60008282101561105457611054610f10565b500390565b600081600019048311821515161561107357611073610f10565b500290565b6000865161108a818460208b01610cb7565b86519083019061109e818360208b01610cb7565b86519101906110b1818360208a01610cb7565b85519101906110c4818360208901610cb7565b84519101906110d7818360208801610cb7565b0197965050505050505056fea26469706673582212208f4399b8f5cdbf1ce4b909de8d24e3a8e97f011afc91667ee619e8fc0c0d5b3c64736f6c634300080b0033",
  "bytecodeSha1": "86353500ee42c7371b09decf7479669a1df38bea",
  "compiler": {
    "evm_version": "istanbul",
    "optimizer": {
      "enabled": true,
      "runs": 200
    },
    "version": "0.8.11+commit.d7f03943"
  },
  "contractName": "VotingSession",
  "language": "Solidity",
  "natspec": {
    "kind": "dev",
    "methods": {
      "owner()": {
        "details": "Returns the address of the current owner."
      },
      "renounceOwnership()": {
        "details": "Leaves the contract without owner. It will not be possible to call `onlyOwner` functions anymore. Can only be called by the current owner. NOTE: Renouncing ownership will leave the contract without an owner, thereby removing any functionality that is only available to the owner."
      },
      "transferOwnership(address)": {
        "details": "Transfers ownership of the contract to a new account (`newOwner`). Can only be called by the current owner."
      }
    },
    "version": 1
  },
  "opcodes": "PUSH1 0x80 PUSH1 0x40 MSTORE CALLVALUE DUP1 ISZERO PUSH2 0x10 JUMPI PUSH1 0x0 DUP1 REVERT JUMPDEST POP PUSH1 0x4 CALLDATASIZE LT PUSH2 0x100 JUMPI PUSH1 0x0 CALLDATALOAD PUSH1 0xE0 SHR DUP1 PUSH4 0x95D89B41 GT PUSH2 0x97 JUMPI DUP1 PUSH4 0xE97995DC GT PUSH2 0x66 JUMPI DUP1 PUSH4 0xE97995DC EQ PUSH2 0x261 JUMPI DUP1 PUSH4 0xEFBE1C1C EQ PUSH2 0x276 JUMPI DUP1 PUSH4 0xF2FDE38B EQ PUSH2 0x27F JUMPI DUP1 PUSH4 0xF6FD7FDE EQ PUSH2 0x292 JUMPI PUSH1 0x0 DUP1 REVERT JUMPDEST DUP1 PUSH4 0x95D89B41 EQ PUSH2 0x212 JUMPI DUP1 PUSH4 0xBE9A6555 EQ PUSH2 0x21A JUMPI DUP1 PUSH4 0xBF247F79 EQ PUSH2 0x231 JUMPI DUP1 PUSH4 0xDDE06F49 EQ PUSH2 0x23E JUMPI PUSH1 0x0 DUP1 REVERT JUMPDEST DUP1 PUSH4 0x715018A6 GT PUSH2 0xD3 JUMPI DUP1 PUSH4 0x715018A6 EQ PUSH2 0x198 JUMPI DUP1 PUSH4 0x8DA5CB5B EQ PUSH2 0x1A0 JUMPI DUP1 PUSH4 0x90CA27F3 EQ PUSH2 0x1BB JUMPI DUP1 PUSH4 0x91623640 EQ PUSH2 0x1CE JUMPI PUSH1 0x0 DUP1 REVERT JUMPDEST DUP1 PUSH4 0x22517A16 EQ PUSH2 0x105 JUMPI DUP1 PUSH4 0x2AED8692 EQ PUSH2 0x148 JUMPI DUP1 PUSH4 0x4717F97C EQ PUSH2 0x16E JUMPI DUP1 PUSH4 0x5FA520BB EQ PUSH2 0x183 JUMPI JUMPDEST PUSH1 0x0 DUP1 REVERT JUMPDEST PUSH2 0x133 PUSH2 0x113 CALLDATASIZE PUSH1 0x4 PUSH2 0xC7A JUMP JUMPDEST DUP1 MLOAD PUSH1 0x20 DUP2 DUP4 ADD DUP2 ADD DUP1 MLOAD PUSH1 0x7 DUP3 MSTORE SWAP3 DUP3 ADD SWAP2 SWAP1 SWAP4 ADD KECCAK256 SWAP2 MSTORE SLOAD PUSH1 0xFF AND DUP2 JUMP JUMPDEST PUSH1 0x40 MLOAD SWAP1 ISZERO ISZERO DUP2 MSTORE PUSH1 0x20 ADD JUMPDEST PUSH1 0x40 MLOAD DUP1 SWAP2 SUB SWAP1 RETURN JUMPDEST CALLER PUSH1 0x0 SWAP1 DUP2 MSTORE PUSH1 0x5 PUSH1 0x20 MSTORE PUSH1 0x40 SWAP1 KECCAK256 SLOAD PUSH1 0xFF AND JUMPDEST PUSH1 0x40 MLOAD PUSH1 0xFF SWAP1 SWAP2 AND DUP2 MSTORE PUSH1 0x20 ADD PUSH2 0x13F JUMP JUMPDEST PUSH2 0x176 PUSH2 0x2A5 JUMP JUMPDEST PUSH1 0x40 MLOAD PUSH2 0x13F SWAP2 SWAP1 PUSH2 0xD13 JUMP JUMPDEST PUSH2 0x196 PUSH2 0x191 CALLDATASIZE PUSH1 0x4 PUSH2 0xC7A JUMP JUMPDEST PUSH2 0x40D JUMP JUMPDEST STOP JUMPDEST PUSH2 0x196 PUSH2 0x537 JUMP JUMPDEST PUSH1 0x0 SLOAD PUSH1 0x40 MLOAD PUSH1 0x1 PUSH1 0x1 PUSH1 0xA0 SHL SUB SWAP1 SWAP2 AND DUP2 MSTORE PUSH1 0x20 ADD PUSH2 0x13F JUMP JUMPDEST PUSH2 0x196 PUSH2 0x1C9 CALLDATASIZE PUSH1 0x4 PUSH2 0xD2D JUMP JUMPDEST PUSH2 0x56D JUMP JUMPDEST PUSH2 0x1FE PUSH2 0x1DC CALLDATASIZE PUSH1 0x4 PUSH2 0xC7A JUMP JUMPDEST DUP1 MLOAD PUSH1 0x20 DUP2 DUP4 ADD DUP2 ADD DUP1 MLOAD PUSH1 0x8 DUP3 MSTORE SWAP3 DUP3 ADD SWAP2 SWAP1 SWAP4 ADD KECCAK256 SWAP2 MSTORE SLOAD PUSH3 0xFFFFFF AND DUP2 JUMP JUMPDEST PUSH1 0x40 MLOAD PUSH3 0xFFFFFF SWAP1 SWAP2 AND DUP2 MSTORE PUSH1 0x20 ADD PUSH2 0x13F JUMP JUMPDEST PUSH2 0x176 PUSH2 0x763 JUMP JUMPDEST PUSH2 0x223 PUSH1 0x2 SLOAD DUP2 JUMP JUMPDEST PUSH1 0x40 MLOAD SWAP1 DUP2 MSTORE PUSH1 0x20 ADD PUSH2 0x13F JUMP JUMPDEST PUSH1 0x4 SLOAD PUSH2 0x15C SWAP1 PUSH1 0xFF AND DUP2 JUMP JUMPDEST PUSH2 0x15C PUSH2 0x24C CALLDATASIZE PUSH1 0x4 PUSH2 0xD85 JUMP JUMPDEST PUSH1 0x5 PUSH1 0x20 MSTORE PUSH1 0x0 SWAP1 DUP2 MSTORE PUSH1 0x40 SWAP1 KECCAK256 SLOAD PUSH1 0xFF AND DUP2 JUMP JUMPDEST PUSH2 0x269 PUSH2 0x7F1 JUMP JUMPDEST PUSH1 0x40 MLOAD PUSH2 0x13F SWAP2 SWAP1 PUSH2 0xDAE JUMP JUMPDEST PUSH2 0x223 PUSH1 0x3 SLOAD DUP2 JUMP JUMPDEST PUSH2 0x196 PUSH2 0x28D CALLDATASIZE PUSH1 0x4 PUSH2 0xD85 JUMP JUMPDEST PUSH2 0x8CA JUMP JUMPDEST PUSH2 0x176 PUSH2 0x2A0 CALLDATASIZE PUSH1 0x4 PUSH2 0xE10 JUMP JUMPDEST PUSH2 0x965 JUMP JUMPDEST PUSH1 0x40 DUP1 MLOAD PUSH1 0x20 DUP2 ADD SWAP1 SWAP2 MSTORE PUSH1 0x0 DUP1 DUP3 MSTORE PUSH1 0x60 SWAP2 SWAP1 JUMPDEST PUSH1 0x6 SLOAD DUP2 LT ISZERO PUSH2 0x407 JUMPI PUSH2 0x3F3 DUP3 PUSH1 0x6 DUP4 DUP2 SLOAD DUP2 LT PUSH2 0x2DB JUMPI PUSH2 0x2DB PUSH2 0xE29 JUMP JUMPDEST SWAP1 PUSH1 0x0 MSTORE PUSH1 0x20 PUSH1 0x0 KECCAK256 ADD DUP1 SLOAD PUSH2 0x2F0 SWAP1 PUSH2 0xE3F JUMP JUMPDEST DUP1 PUSH1 0x1F ADD PUSH1 0x20 DUP1 SWAP2 DIV MUL PUSH1 0x20 ADD PUSH1 0x40 MLOAD SWAP1 DUP2 ADD PUSH1 0x40 MSTORE DUP1 SWAP3 SWAP2 SWAP1 DUP2 DUP2 MSTORE PUSH1 0x20 ADD DUP3 DUP1 SLOAD PUSH2 0x31C SWAP1 PUSH2 0xE3F JUMP JUMPDEST DUP1 ISZERO PUSH2 0x369 JUMPI DUP1 PUSH1 0x1F LT PUSH2 0x33E JUMPI PUSH2 0x100 DUP1 DUP4 SLOAD DIV MUL DUP4 MSTORE SWAP2 PUSH1 0x20 ADD SWAP2 PUSH2 0x369 JUMP JUMPDEST DUP3 ADD SWAP2 SWAP1 PUSH1 0x0 MSTORE PUSH1 0x20 PUSH1 0x0 KECCAK256 SWAP1 JUMPDEST DUP2 SLOAD DUP2 MSTORE SWAP1 PUSH1 0x1 ADD SWAP1 PUSH1 0x20 ADD DUP1 DUP4 GT PUSH2 0x34C JUMPI DUP3 SWAP1 SUB PUSH1 0x1F AND DUP3 ADD SWAP2 JUMPDEST POP POP POP POP POP PUSH1 0x40 MLOAD DUP1 PUSH1 0x40 ADD PUSH1 0x40 MSTORE DUP1 PUSH1 0x4 DUP2 MSTORE PUSH1 0x20 ADD PUSH4 0x101E9F1 PUSH1 0xE5 SHL DUP2 MSTORE POP PUSH2 0x3D4 PUSH1 0x8 PUSH1 0x6 DUP8 DUP2 SLOAD DUP2 LT PUSH2 0x3A3 JUMPI PUSH2 0x3A3 PUSH2 0xE29 JUMP JUMPDEST SWAP1 PUSH1 0x0 MSTORE PUSH1 0x20 PUSH1 0x0 KECCAK256 ADD PUSH1 0x40 MLOAD PUSH2 0x3BA SWAP2 SWAP1 PUSH2 0xE74 JUMP JUMPDEST SWAP1 DUP2 MSTORE PUSH1 0x40 MLOAD SWAP1 DUP2 SWAP1 SUB PUSH1 0x20 ADD SWAP1 KECCAK256 SLOAD PUSH3 0xFFFFFF AND PUSH2 0x990 JUMP JUMPDEST PUSH1 0x40 MLOAD DUP1 PUSH1 0x40 ADD PUSH1 0x40 MSTORE DUP1 PUSH1 0x1 DUP2 MSTORE PUSH1 0x20 ADD PUSH1 0x5 PUSH1 0xF9 SHL DUP2 MSTORE POP PUSH2 0xAB9 JUMP JUMPDEST SWAP2 POP DUP1 PUSH2 0x3FF DUP2 PUSH2 0xF26 JUMP JUMPDEST SWAP2 POP POP PUSH2 0x2BA JUMP JUMPDEST POP SWAP2 SWAP1 POP JUMP JUMPDEST PUSH1 0x0 SLOAD PUSH1 0x1 PUSH1 0x1 PUSH1 0xA0 SHL SUB AND CALLER EQ PUSH2 0x440 JUMPI PUSH1 0x40 MLOAD PUSH3 0x461BCD PUSH1 0xE5 SHL DUP2 MSTORE PUSH1 0x4 ADD PUSH2 0x437 SWAP1 PUSH2 0xF41 JUMP JUMPDEST PUSH1 0x40 MLOAD DUP1 SWAP2 SUB SWAP1 REVERT JUMPDEST PUSH1 0x3 SLOAD TIMESTAMP LT PUSH2 0x461 JUMPI PUSH1 0x40 MLOAD PUSH3 0x461BCD PUSH1 0xE5 SHL DUP2 MSTORE PUSH1 0x4 ADD PUSH2 0x437 SWAP1 PUSH2 0xF76 JUMP JUMPDEST PUSH1 0x2 SLOAD TIMESTAMP LT PUSH2 0x4BE JUMPI PUSH1 0x40 MLOAD PUSH3 0x461BCD PUSH1 0xE5 SHL DUP2 MSTORE PUSH1 0x20 PUSH1 0x4 DUP3 ADD MSTORE PUSH1 0x24 DUP1 DUP3 ADD MSTORE PUSH32 0x5468697320766F74696E672073657373696F6E20616C72656164792073746172 PUSH1 0x44 DUP3 ADD MSTORE PUSH4 0x3A32B217 PUSH1 0xE1 SHL PUSH1 0x64 DUP3 ADD MSTORE PUSH1 0x84 ADD PUSH2 0x437 JUMP JUMPDEST PUSH1 0x6 DUP1 SLOAD PUSH1 0x1 DUP2 ADD DUP3 SSTORE PUSH1 0x0 SWAP2 SWAP1 SWAP2 MSTORE DUP2 MLOAD PUSH2 0x501 SWAP2 PUSH32 0xF652222313E28459528D920B65115C16C04F3EFC82AAEDC97BE59F3F377C0D3F ADD SWAP1 PUSH1 0x20 DUP5 ADD SWAP1 PUSH2 0xB3E JUMP JUMPDEST POP PUSH1 0x1 PUSH1 0x7 DUP3 PUSH1 0x40 MLOAD PUSH2 0x514 SWAP2 SWAP1 PUSH2 0xFB8 JUMP JUMPDEST SWAP1 DUP2 MSTORE PUSH1 0x40 MLOAD SWAP1 DUP2 SWAP1 SUB PUSH1 0x20 ADD SWAP1 KECCAK256 DUP1 SLOAD SWAP2 ISZERO ISZERO PUSH1 0xFF NOT SWAP1 SWAP3 AND SWAP2 SWAP1 SWAP2 OR SWAP1 SSTORE POP JUMP JUMPDEST PUSH1 0x0 SLOAD PUSH1 0x1 PUSH1 0x1 PUSH1 0xA0 SHL SUB AND CALLER EQ PUSH2 0x561 JUMPI PUSH1 0x40 MLOAD PUSH3 0x461BCD PUSH1 0xE5 SHL DUP2 MSTORE PUSH1 0x4 ADD PUSH2 0x437 SWAP1 PUSH2 0xF41 JUMP JUMPDEST PUSH2 0x56B PUSH1 0x0 PUSH2 0xAEE JUMP JUMPDEST JUMP JUMPDEST PUSH1 0x3 SLOAD TIMESTAMP LT PUSH2 0x58E JUMPI PUSH1 0x40 MLOAD PUSH3 0x461BCD PUSH1 0xE5 SHL DUP2 MSTORE PUSH1 0x4 ADD PUSH2 0x437 SWAP1 PUSH2 0xF76 JUMP JUMPDEST PUSH1 0x2 SLOAD TIMESTAMP LT ISZERO PUSH2 0x5EF JUMPI PUSH1 0x40 MLOAD PUSH3 0x461BCD PUSH1 0xE5 SHL DUP2 MSTORE PUSH1 0x20 PUSH1 0x4 DUP3 ADD MSTORE PUSH1 0x26 PUSH1 0x24 DUP3 ADD MSTORE PUSH32 0x5468697320766F74696E672073657373696F6E20646964206E6F742073746172 PUSH1 0x44 DUP3 ADD MSTORE PUSH6 0x3A103CB2BA17 PUSH1 0xD1 SHL PUSH1 0x64 DUP3 ADD MSTORE PUSH1 0x84 ADD PUSH2 0x437 JUMP JUMPDEST PUSH1 0x7 DUP3 PUSH1 0x40 MLOAD PUSH2 0x5FF SWAP2 SWAP1 PUSH2 0xFB8 JUMP JUMPDEST SWAP1 DUP2 MSTORE PUSH1 0x40 MLOAD SWAP1 DUP2 SWAP1 SUB PUSH1 0x20 ADD SWAP1 KECCAK256 SLOAD PUSH1 0xFF AND PUSH2 0x650 JUMPI PUSH1 0x40 MLOAD PUSH3 0x461BCD PUSH1 0xE5 SHL DUP2 MSTORE PUSH1 0x20 PUSH1 0x4 DUP3 ADD MSTORE PUSH1 0xF PUSH1 0x24 DUP3 ADD MSTORE PUSH15 0x24B73B30B634B21031B437B4B1B297 PUSH1 0x89 SHL PUSH1 0x44 DUP3 ADD MSTORE PUSH1 0x64 ADD PUSH2 0x437 JUMP JUMPDEST PUSH1 0x4 SLOAD CALLER PUSH1 0x0 SWAP1 DUP2 MSTORE PUSH1 0x5 PUSH1 0x20 MSTORE PUSH1 0x40 SWAP1 KECCAK256 SLOAD PUSH1 0xFF SWAP2 DUP3 AND SWAP2 PUSH2 0x675 SWAP2 DUP5 SWAP2 AND PUSH2 0xFD4 JUMP JUMPDEST PUSH1 0xFF AND GT ISZERO PUSH2 0x6D1 JUMPI PUSH1 0x40 MLOAD PUSH3 0x461BCD PUSH1 0xE5 SHL DUP2 MSTORE PUSH1 0x20 PUSH1 0x4 DUP3 ADD MSTORE PUSH1 0x22 PUSH1 0x24 DUP3 ADD MSTORE PUSH32 0x4578636565646564206E756D626572206F6620766F7465732070657220757365 PUSH1 0x44 DUP3 ADD MSTORE PUSH2 0x3917 PUSH1 0xF1 SHL PUSH1 0x64 DUP3 ADD MSTORE PUSH1 0x84 ADD PUSH2 0x437 JUMP JUMPDEST CALLER PUSH1 0x0 SWAP1 DUP2 MSTORE PUSH1 0x5 PUSH1 0x20 MSTORE PUSH1 0x40 DUP2 KECCAK256 DUP1 SLOAD DUP4 SWAP3 SWAP1 PUSH2 0x6F3 SWAP1 DUP5 SWAP1 PUSH1 0xFF AND PUSH2 0xFD4 JUMP JUMPDEST SWAP3 POP PUSH2 0x100 EXP DUP2 SLOAD DUP2 PUSH1 0xFF MUL NOT AND SWAP1 DUP4 PUSH1 0xFF AND MUL OR SWAP1 SSTORE POP DUP1 PUSH1 0xFF AND PUSH1 0x8 DUP4 PUSH1 0x40 MLOAD PUSH2 0x71F SWAP2 SWAP1 PUSH2 0xFB8 JUMP JUMPDEST SWAP1 DUP2 MSTORE PUSH1 0x40 MLOAD SWAP1 DUP2 SWAP1 SUB PUSH1 0x20 ADD SWAP1 KECCAK256 DUP1 SLOAD PUSH1 0x0 SWAP1 PUSH2 0x743 SWAP1 DUP5 SWAP1 PUSH3 0xFFFFFF AND PUSH2 0xFF9 JUMP JUMPDEST SWAP3 POP PUSH2 0x100 EXP DUP2 SLOAD DUP2 PUSH3 0xFFFFFF MUL NOT AND SWAP1 DUP4 PUSH3 0xFFFFFF AND MUL OR SWAP1 SSTORE POP POP POP JUMP JUMPDEST PUSH1 0x1 DUP1 SLOAD PUSH2 0x770 SWAP1 PUSH2 0xE3F JUMP JUMPDEST DUP1 PUSH1 0x1F ADD PUSH1 0x20 DUP1 SWAP2 DIV MUL PUSH1 0x20 ADD PUSH1 0x40 MLOAD SWAP1 DUP2 ADD PUSH1 0x40 MSTORE DUP1 SWAP3 SWAP2 SWAP1 DUP2 DUP2 MSTORE PUSH1 0x20 ADD DUP3 DUP1 SLOAD PUSH2 0x79C SWAP1 PUSH2 0xE3F JUMP JUMPDEST DUP1 ISZERO PUSH2 0x7E9 JUMPI DUP1 PUSH1 0x1F LT PUSH2 0x7BE JUMPI PUSH2 0x100 DUP1 DUP4 SLOAD DIV MUL DUP4 MSTORE SWAP2 PUSH1 0x20 ADD SWAP2 PUSH2 0x7E9 JUMP JUMPDEST DUP3 ADD SWAP2 SWAP1 PUSH1 0x0 MSTORE PUSH1 0x20 PUSH1 0x0 KECCAK256 SWAP1 JUMPDEST DUP2 SLOAD DUP2 MSTORE SWAP1 PUSH1 0x1 ADD SWAP1 PUSH1 0x20 ADD DUP1 DUP4 GT PUSH2 0x7CC JUMPI DUP3 SWAP1 SUB PUSH1 0x1F AND DUP3 ADD SWAP2 JUMPDEST POP POP POP POP POP DUP2 JUMP JUMPDEST PUSH1 0x60 PUSH1 0x6 DUP1 SLOAD DUP1 PUSH1 0x20 MUL PUSH1 0x20 ADD PUSH1 0x40 MLOAD SWAP1 DUP2 ADD PUSH1 0x40 MSTORE DUP1 SWAP3 SWAP2 SWAP1 DUP2 DUP2 MSTORE PUSH1 0x20 ADD PUSH1 0x0 SWAP1 JUMPDEST DUP3 DUP3 LT ISZERO PUSH2 0x8C1 JUMPI DUP4 DUP3 SWAP1 PUSH1 0x0 MSTORE PUSH1 0x20 PUSH1 0x0 KECCAK256 ADD DUP1 SLOAD PUSH2 0x834 SWAP1 PUSH2 0xE3F JUMP JUMPDEST DUP1 PUSH1 0x1F ADD PUSH1 0x20 DUP1 SWAP2 DIV MUL PUSH1 0x20 ADD PUSH1 0x40 MLOAD SWAP1 DUP2 ADD PUSH1 0x40 MSTORE DUP1 SWAP3 SWAP2 SWAP1 DUP2 DUP2 MSTORE PUSH1 0x20 ADD DUP3 DUP1 SLOAD PUSH2 0x860 SWAP1 PUSH2 0xE3F JUMP JUMPDEST DUP1 ISZERO PUSH2 0x8AD JUMPI DUP1 PUSH1 0x1F LT PUSH2 0x882 JUMPI PUSH2 0x100 DUP1 DUP4 SLOAD DIV MUL DUP4 MSTORE SWAP2 PUSH1 0x20 ADD SWAP2 PUSH2 0x8AD JUMP JUMPDEST DUP3 ADD SWAP2 SWAP1 PUSH1 0x0 MSTORE PUSH1 0x20 PUSH1 0x0 KECCAK256 SWAP1 JUMPDEST DUP2 SLOAD DUP2 MSTORE SWAP1 PUSH1 0x1 ADD SWAP1 PUSH1 0x20 ADD DUP1 DUP4 GT PUSH2 0x890 JUMPI DUP3 SWAP1 SUB PUSH1 0x1F AND DUP3 ADD SWAP2 JUMPDEST POP POP POP POP POP DUP2 MSTORE PUSH1 0x20 ADD SWAP1 PUSH1 0x1 ADD SWAP1 PUSH2 0x815 JUMP JUMPDEST POP POP POP POP SWAP1 POP SWAP1 JUMP JUMPDEST PUSH1 0x0 SLOAD PUSH1 0x1 PUSH1 0x1 PUSH1 0xA0 SHL SUB AND CALLER EQ PUSH2 0x8F4 JUMPI PUSH1 0x40 MLOAD PUSH3 0x461BCD PUSH1 0xE5 SHL DUP2 MSTORE PUSH1 0x4 ADD PUSH2 0x437 SWAP1 PUSH2 0xF41 JUMP JUMPDEST PUSH1 0x1 PUSH1 0x1 PUSH1 0xA0 SHL SUB DUP2 AND PUSH2 0x959 JUMPI PUSH1 0x40 MLOAD PUSH3 0x461BCD PUSH1 0xE5 SHL DUP2 MSTORE PUSH1 0x20 PUSH1 0x4 DUP3 ADD MSTORE PUSH1 0x26 PUSH1 0x24 DUP3 ADD MSTORE PUSH32 0x4F776E61626C653A206E6577206F776E657220697320746865207A65726F2061 PUSH1 0x44 DUP3 ADD MSTORE PUSH6 0x646472657373 PUSH1 0xD0 SHL PUSH1 0x64 DUP3 ADD MSTORE PUSH1 0x84 ADD PUSH2 0x437 JUMP JUMPDEST PUSH2 0x962 DUP2 PUSH2 0xAEE JUMP JUMPDEST POP JUMP JUMPDEST PUSH1 0x6 DUP2 DUP2 SLOAD DUP2 LT PUSH2 0x975 JUMPI PUSH1 0x0 DUP1 REVERT JUMPDEST SWAP1 PUSH1 0x0 MSTORE PUSH1 0x20 PUSH1 0x0 KECCAK256 ADD PUSH1 0x0 SWAP2 POP SWAP1 POP DUP1 SLOAD PUSH2 0x770 SWAP1 PUSH2 0xE3F JUMP JUMPDEST PUSH1 0x60 DUP2 PUSH2 0x9B4 JUMPI POP POP PUSH1 0x40 DUP1 MLOAD DUP1 DUP3 ADD SWAP1 SWAP2 MSTORE PUSH1 0x1 DUP2 MSTORE PUSH1 0x3 PUSH1 0xFC SHL PUSH1 0x20 DUP3 ADD MSTORE SWAP1 JUMP JUMPDEST DUP2 PUSH1 0x0 JUMPDEST DUP2 ISZERO PUSH2 0x9DE JUMPI DUP1 PUSH2 0x9C8 DUP2 PUSH2 0xF26 JUMP JUMPDEST SWAP2 POP PUSH2 0x9D7 SWAP1 POP PUSH1 0xA DUP4 PUSH2 0x1020 JUMP JUMPDEST SWAP2 POP PUSH2 0x9B8 JUMP JUMPDEST PUSH1 0x0 DUP2 PUSH8 0xFFFFFFFFFFFFFFFF DUP2 GT ISZERO PUSH2 0x9F9 JUMPI PUSH2 0x9F9 PUSH2 0xBD7 JUMP JUMPDEST PUSH1 0x40 MLOAD SWAP1 DUP1 DUP3 MSTORE DUP1 PUSH1 0x1F ADD PUSH1 0x1F NOT AND PUSH1 0x20 ADD DUP3 ADD PUSH1 0x40 MSTORE DUP1 ISZERO PUSH2 0xA23 JUMPI PUSH1 0x20 DUP3 ADD DUP2 DUP1 CALLDATASIZE DUP4 CALLDATACOPY ADD SWAP1 POP JUMPDEST POP SWAP1 POP DUP2 JUMPDEST DUP6 ISZERO PUSH2 0xAB0 JUMPI PUSH2 0xA39 PUSH1 0x1 DUP3 PUSH2 0x1042 JUMP JUMPDEST SWAP1 POP PUSH1 0x0 PUSH2 0xA48 PUSH1 0xA DUP9 PUSH2 0x1020 JUMP JUMPDEST PUSH2 0xA53 SWAP1 PUSH1 0xA PUSH2 0x1059 JUMP JUMPDEST PUSH2 0xA5D SWAP1 DUP9 PUSH2 0x1042 JUMP JUMPDEST PUSH2 0xA68 SWAP1 PUSH1 0x30 PUSH2 0xFD4 JUMP JUMPDEST SWAP1 POP PUSH1 0x0 DUP2 PUSH1 0xF8 SHL SWAP1 POP DUP1 DUP5 DUP5 DUP2 MLOAD DUP2 LT PUSH2 0xA85 JUMPI PUSH2 0xA85 PUSH2 0xE29 JUMP JUMPDEST PUSH1 0x20 ADD ADD SWAP1 PUSH1 0x1 PUSH1 0x1 PUSH1 0xF8 SHL SUB NOT AND SWAP1 DUP2 PUSH1 0x0 BYTE SWAP1 MSTORE8 POP PUSH2 0xAA7 PUSH1 0xA DUP10 PUSH2 0x1020 JUMP JUMPDEST SWAP8 POP POP POP PUSH2 0xA28 JUMP JUMPDEST POP SWAP5 SWAP4 POP POP POP POP JUMP JUMPDEST PUSH1 0x60 DUP6 DUP6 DUP6 DUP6 DUP6 PUSH1 0x40 MLOAD PUSH1 0x20 ADD PUSH2 0xAD4 SWAP6 SWAP5 SWAP4 SWAP3 SWAP2 SWAP1 PUSH2 0x1078 JUMP JUMPDEST PUSH1 0x40 MLOAD PUSH1 0x20 DUP2 DUP4 SUB SUB DUP2 MSTORE SWAP1 PUSH1 0x40 MSTORE SWAP1 POP SWAP6 SWAP5 POP POP POP POP POP JUMP JUMPDEST PUSH1 0x0 DUP1 SLOAD PUSH1 0x1 PUSH1 0x1 PUSH1 0xA0 SHL SUB DUP4 DUP2 AND PUSH1 0x1 PUSH1 0x1 PUSH1 0xA0 SHL SUB NOT DUP4 AND DUP2 OR DUP5 SSTORE PUSH1 0x40 MLOAD SWAP2 SWAP1 SWAP3 AND SWAP3 DUP4 SWAP2 PUSH32 0x8BE0079C531659141344CD1FD0A4F28419497F9722A3DAAFE3B4186F6B6457E0 SWAP2 SWAP1 LOG3 POP POP JUMP JUMPDEST DUP3 DUP1 SLOAD PUSH2 0xB4A SWAP1 PUSH2 0xE3F JUMP JUMPDEST SWAP1 PUSH1 0x0 MSTORE PUSH1 0x20 PUSH1 0x0 KECCAK256 SWAP1 PUSH1 0x1F ADD PUSH1 0x20 SWAP1 DIV DUP2 ADD SWAP3 DUP3 PUSH2 0xB6C JUMPI PUSH1 0x0 DUP6 SSTORE PUSH2 0xBB2 JUMP JUMPDEST DUP3 PUSH1 0x1F LT PUSH2 0xB85 JUMPI DUP1 MLOAD PUSH1 0xFF NOT AND DUP4 DUP1 ADD OR DUP6 SSTORE PUSH2 0xBB2 JUMP JUMPDEST DUP3 DUP1 ADD PUSH1 0x1 ADD DUP6 SSTORE DUP3 ISZERO PUSH2 0xBB2 JUMPI SWAP2 DUP3 ADD JUMPDEST DUP3 DUP2 GT ISZERO PUSH2 0xBB2 JUMPI DUP3 MLOAD DUP3 SSTORE SWAP2 PUSH1 0x20 ADD SWAP2 SWAP1 PUSH1 0x1 ADD SWAP1 PUSH2 0xB97 JUMP JUMPDEST POP PUSH2 0xBBE SWAP3 SWAP2 POP PUSH2 0xBC2 JUMP JUMPDEST POP SWAP1 JUMP JUMPDEST JUMPDEST DUP1 DUP3 GT ISZERO PUSH2 0xBBE JUMPI PUSH1 0x0 DUP2 SSTORE PUSH1 0x1 ADD PUSH2 0xBC3 JUMP JUMPDEST PUSH4 0x4E487B71 PUSH1 0xE0 SHL PUSH1 0x0 MSTORE PUSH1 0x41 PUSH1 0x4 MSTORE PUSH1 0x24 PUSH1 0x0 REVERT JUMPDEST PUSH1 0x0 DUP3 PUSH1 0x1F DUP4 ADD SLT PUSH2 0xBFE JUMPI PUSH1 0x0 DUP1 REVERT JUMPDEST DUP2 CALLDATALOAD PUSH8 0xFFFFFFFFFFFFFFFF DUP1 DUP3 GT ISZERO PUSH2 0xC19 JUMPI PUSH2 0xC19 PUSH2 0xBD7 JUMP JUMPDEST PUSH1 0x40 MLOAD PUSH1 0x1F DUP4 ADD PUSH1 0x1F NOT SWAP1 DUP2 AND PUSH1 0x3F ADD AND DUP2 ADD SWAP1 DUP3 DUP3 GT DUP2 DUP4 LT OR ISZERO PUSH2 0xC41 JUMPI PUSH2 0xC41 PUSH2 0xBD7 JUMP JUMPDEST DUP2 PUSH1 0x40 MSTORE DUP4 DUP2 MSTORE DUP7 PUSH1 0x20 DUP6 DUP9 ADD ADD GT ISZERO PUSH2 0xC5A JUMPI PUSH1 0x0 DUP1 REVERT JUMPDEST DUP4 PUSH1 0x20 DUP8 ADD PUSH1 0x20 DUP4 ADD CALLDATACOPY PUSH1 0x0 PUSH1 0x20 DUP6 DUP4 ADD ADD MSTORE DUP1 SWAP5 POP POP POP POP POP SWAP3 SWAP2 POP POP JUMP JUMPDEST PUSH1 0x0 PUSH1 0x20 DUP3 DUP5 SUB SLT ISZERO PUSH2 0xC8C JUMPI PUSH1 0x0 DUP1 REVERT JUMPDEST DUP2 CALLDATALOAD PUSH8 0xFFFFFFFFFFFFFFFF DUP2 GT ISZERO PUSH2 0xCA3 JUMPI PUSH1 0x0 DUP1 REVERT JUMPDEST PUSH2 0xCAF DUP5 DUP3 DUP6 ADD PUSH2 0xBED JUMP JUMPDEST SWAP5 SWAP4 POP POP POP POP JUMP JUMPDEST PUSH1 0x0 JUMPDEST DUP4 DUP2 LT ISZERO PUSH2 0xCD2 JUMPI DUP2 DUP2 ADD MLOAD DUP4 DUP3 ADD MSTORE PUSH1 0x20 ADD PUSH2 0xCBA JUMP JUMPDEST DUP4 DUP2 GT ISZERO PUSH2 0xCE1 JUMPI PUSH1 0x0 DUP5 DUP5 ADD MSTORE JUMPDEST POP POP POP POP JUMP JUMPDEST PUSH1 0x0 DUP2 MLOAD DUP1 DUP5 MSTORE PUSH2 0xCFF DUP2 PUSH1 0x20 DUP7 ADD PUSH1 0x20 DUP7 ADD PUSH2 0xCB7 JUMP JUMPDEST PUSH1 0x1F ADD PUSH1 0x1F NOT AND SWAP3 SWAP1 SWAP3 ADD PUSH1 0x20 ADD SWAP3 SWAP2 POP POP JUMP JUMPDEST PUSH1 0x20 DUP2 MSTORE PUSH1 0x0 PUSH2 0xD26 PUSH1 0x20 DUP4 ADD DUP5 PUSH2 0xCE7 JUMP JUMPDEST SWAP4 SWAP3 POP POP POP JUMP JUMPDEST PUSH1 0x0 DUP1 PUSH1 0x40 DUP4 DUP6 SUB SLT ISZERO PUSH2 0xD40 JUMPI PUSH1 0x0 DUP1 REVERT JUMPDEST DUP3 CALLDATALOAD PUSH8 0xFFFFFFFFFFFFFFFF DUP2 GT ISZERO PUSH2 0xD57 JUMPI PUSH1 0x0 DUP1 REVERT JUMPDEST PUSH2 0xD63 DUP6 DUP3 DUP7 ADD PUSH2 0xBED JUMP JUMPDEST SWAP3 POP POP PUSH1 0x20 DUP4 ADD CALLDATALOAD PUSH1 0xFF DUP2 AND DUP2 EQ PUSH2 0xD7A JUMPI PUSH1 0x0 DUP1 REVERT JUMPDEST DUP1 SWAP2 POP POP SWAP3 POP SWAP3 SWAP1 POP JUMP JUMPDEST PUSH1 0x0 PUSH1 0x20 DUP3 DUP5 SUB SLT ISZERO PUSH2 0xD97 JUMPI PUSH1 0x0 DUP1 REVERT JUMPDEST DUP2 CALLDATALOAD PUSH1 0x1 PUSH1 0x1 PUSH1 0xA0 SHL SUB DUP2 AND DUP2 EQ PUSH2 0xD26 JUMPI PUSH1 0x0 DUP1 REVERT JUMPDEST PUSH1 0x0 PUSH1 0x20 DUP1 DUP4 ADD DUP2 DUP5 MSTORE DUP1 DUP6 MLOAD DUP1 DUP4 MSTORE PUSH1 0x40 DUP7 ADD SWAP2 POP PUSH1 0x40 DUP2 PUSH1 0x5 SHL DUP8 ADD ADD SWAP3 POP DUP4 DUP8 ADD PUSH1 0x0 JUMPDEST DUP3 DUP2 LT ISZERO PUSH2 0xE03 JUMPI PUSH1 0x3F NOT DUP9 DUP7 SUB ADD DUP5 MSTORE PUSH2 0xDF1 DUP6 DUP4 MLOAD PUSH2 0xCE7 JUMP JUMPDEST SWAP5 POP SWAP3 DUP6 ADD SWAP3 SWAP1 DUP6 ADD SWAP1 PUSH1 0x1 ADD PUSH2 0xDD5 JUMP JUMPDEST POP SWAP3 SWAP8 SWAP7 POP POP POP POP POP POP POP JUMP JUMPDEST PUSH1 0x0 PUSH1 0x20 DUP3 DUP5 SUB SLT ISZERO PUSH2 0xE22 JUMPI PUSH1 0x0 DUP1 REVERT JUMPDEST POP CALLDATALOAD SWAP2 SWAP1 POP JUMP JUMPDEST PUSH4 0x4E487B71 PUSH1 0xE0 SHL PUSH1 0x0 MSTORE PUSH1 0x32 PUSH1 0x4 MSTORE PUSH1 0x24 PUSH1 0x0 REVERT JUMPDEST PUSH1 0x1 DUP2 DUP2 SHR SWAP1 DUP3 AND DUP1 PUSH2 0xE53 JUMPI PUSH1 0x7F DUP3 AND SWAP2 POP JUMPDEST PUSH1 0x20 DUP3 LT DUP2 EQ ISZERO PUSH2 0x407 JUMPI PUSH4 0x4E487B71 PUSH1 0xE0 SHL PUSH1 0x0 MSTORE PUSH1 0x22 PUSH1 0x4 MSTORE PUSH1 0x24 PUSH1 0x0 REVERT JUMPDEST PUSH1 0x0 DUP1 DUP4 SLOAD DUP2 PUSH1 0x1 DUP3 DUP2 SHR SWAP2 POP DUP1 DUP4 AND DUP1 PUSH2 0xE90 JUMPI PUSH1 0x7F DUP4 AND SWAP3 POP JUMPDEST PUSH1 0x20 DUP1 DUP5 LT DUP3 EQ ISZERO PUSH2 0xEB0 JUMPI PUSH4 0x4E487B71 PUSH1 0xE0 SHL DUP7 MSTORE PUSH1 0x22 PUSH1 0x4 MSTORE PUSH1 0x24 DUP7 REVERT JUMPDEST DUP2 DUP1 ISZERO PUSH2 0xEC4 JUMPI PUSH1 0x1 DUP2 EQ PUSH2 0xED5 JUMPI PUSH2 0xF02 JUMP JUMPDEST PUSH1 0xFF NOT DUP7 AND DUP10 MSTORE DUP5 DUP10 ADD SWAP7 POP PUSH2 0xF02 JUMP JUMPDEST PUSH1 0x0 DUP11 DUP2 MSTORE PUSH1 0x20 SWAP1 KECCAK256 PUSH1 0x0 JUMPDEST DUP7 DUP2 LT ISZERO PUSH2 0xEFA JUMPI DUP2 SLOAD DUP12 DUP3 ADD MSTORE SWAP1 DUP6 ADD SWAP1 DUP4 ADD PUSH2 0xEE1 JUMP JUMPDEST POP POP DUP5 DUP10 ADD SWAP7 POP JUMPDEST POP SWAP5 SWAP9 SWAP8 POP POP POP POP POP POP POP POP JUMP JUMPDEST PUSH4 0x4E487B71 PUSH1 0xE0 SHL PUSH1 0x0 MSTORE PUSH1 0x11 PUSH1 0x4 MSTORE PUSH1 0x24 PUSH1 0x0 REVERT JUMPDEST PUSH1 0x0 PUSH1 0x0 NOT DUP3 EQ ISZERO PUSH2 0xF3A JUMPI PUSH2 0xF3A PUSH2 0xF10 JUMP JUMPDEST POP PUSH1 0x1 ADD SWAP1 JUMP JUMPDEST PUSH1 0x20 DUP1 DUP3 MSTORE DUP2 DUP2 ADD MSTORE PUSH32 0x4F776E61626C653A2063616C6C6572206973206E6F7420746865206F776E6572 PUSH1 0x40 DUP3 ADD MSTORE PUSH1 0x60 ADD SWAP1 JUMP JUMPDEST PUSH1 0x20 DUP1 DUP3 MSTORE PUSH1 0x22 SWAP1 DUP3 ADD MSTORE PUSH32 0x5468697320766F74696E672073657373696F6E20616C726561647920656E6465 PUSH1 0x40 DUP3 ADD MSTORE PUSH2 0x3217 PUSH1 0xF1 SHL PUSH1 0x60 DUP3 ADD MSTORE PUSH1 0x80 ADD SWAP1 JUMP JUMPDEST PUSH1 0x0 DUP3 MLOAD PUSH2 0xFCA DUP2 DUP5 PUSH1 0x20 DUP8 ADD PUSH2 0xCB7 JUMP JUMPDEST SWAP2 SWAP1 SWAP2 ADD SWAP3 SWAP2 POP POP JUMP JUMPDEST PUSH1 0x0 PUSH1 0xFF DUP3 AND PUSH1 0xFF DUP5 AND DUP1 PUSH1 0xFF SUB DUP3 GT ISZERO PUSH2 0xFF1 JUMPI PUSH2 0xFF1 PUSH2 0xF10 JUMP JUMPDEST ADD SWAP4 SWAP3 POP POP POP JUMP JUMPDEST PUSH1 0x0 PUSH3 0xFFFFFF DUP1 DUP4 AND DUP2 DUP6 AND DUP1 DUP4 SUB DUP3 GT ISZERO PUSH2 0x1017 JUMPI PUSH2 0x1017 PUSH2 0xF10 JUMP JUMPDEST ADD SWAP5 SWAP4 POP POP POP POP JUMP JUMPDEST PUSH1 0x0 DUP3 PUSH2 0x103D JUMPI PUSH4 0x4E487B71 PUSH1 0xE0 SHL PUSH1 0x0 MSTORE PUSH1 0x12 PUSH1 0x4 MSTORE PUSH1 0x24 PUSH1 0x0 REVERT JUMPDEST POP DIV SWAP1 JUMP JUMPDEST PUSH1 0x0 DUP3 DUP3 LT ISZERO PUSH2 0x1054 JUMPI PUSH2 0x1054 PUSH2 0xF10 JUMP JUMPDEST POP SUB SWAP1 JUMP JUMPDEST PUSH1 0x0 DUP2 PUSH1 0x0 NOT DIV DUP4 GT DUP3 ISZERO ISZERO AND ISZERO PUSH2 0x1073 JUMPI PUSH2 0x1073 PUSH2 0xF10 JUMP JUMPDEST POP MUL SWAP1 JUMP JUMPDEST PUSH1 0x0 DUP7 MLOAD PUSH2 0x108A DUP2 DUP5 PUSH1 0x20 DUP12 ADD PUSH2 0xCB7 JUMP JUMPDEST DUP7 MLOAD SWAP1 DUP4 ADD SWAP1 PUSH2 0x109E DUP2 DUP4 PUSH1 0x20 DUP12 ADD PUSH2 0xCB7 JUMP JUMPDEST DUP7 MLOAD SWAP2 ADD SWAP1 PUSH2 0x10B1 DUP2 DUP4 PUSH1 0x20 DUP11 ADD PUSH2 0xCB7 JUMP JUMPDEST DUP6 MLOAD SWAP2 ADD SWAP1 PUSH2 0x10C4 DUP2 DUP4 PUSH1 0x20 DUP10 ADD PUSH2 0xCB7 JUMP JUMPDEST DUP5 MLOAD SWAP2 ADD SWAP1 PUSH2 0x10D7 DUP2 DUP4 PUSH1 0x20 DUP9 ADD PUSH2 0xCB7 JUMP JUMPDEST ADD SWAP8 SWAP7 POP POP POP POP POP POP POP JUMP INVALID LOG2 PUSH5 0x6970667358 0x22 SLT KECCAK256 DUP16 NUMBER SWAP10 0xB8 CREATE2 0xCD 0xBF SHR 0xE4 0xB9 MULMOD 0xDE DUP14 0x24 0xE3 0xA8 0xE9 PUSH32 0x11AFC91667EE619E8FC0C0D5B3C64736F6C634300080B003300000000000000 ",
  "sha1": "a0f8f503be49f60d593a31e97cc6492a8a59cfa5",
  "source": "// SPDX-License-Identifier: MIT\npragma solidity ^0.8.0;\n\nimport \"@openzeppelin/contracts/access/Ownable.sol\";\nimport \"@openzeppelin/contracts/token/ERC20/IERC20.sol\";\n\nimport \"./VotingHub.sol\";\n\ncontract VotingSession is Ownable {\n    string public symbol;\n    uint256 public start;\n    uint256 public end;\n\n    uint8 public numOfVotesPerUser;\n    mapping(address => uint8) public votesPerUser;\n\n    string[] public choices;\n    // more efficient than array, when looking if it contains certain keys\n    mapping(string => bool) public choicesMap;\n    mapping(string => uint24) public votesPerChoice;\n\n    constructor(\n        string memory _symbol,\n        uint256 _start,\n        uint256 _end,\n        uint8 _numOfVotesPerUser\n    ) {\n        require(\n            _numOfVotesPerUser > 0,\n            \"Number of votes per user must be greater than 0.\"\n        );\n\n        symbol = _symbol;\n        start = _start;\n        end = _end;\n        numOfVotesPerUser = _numOfVotesPerUser;\n    }\n\n    function getNumOfVotesForUser() public view returns (uint8) {\n        return votesPerUser[msg.sender];\n    }\n\n    function vote(string memory choice, uint8 numberOfVotes) public {\n        require(block.timestamp < end, \"This voting session already ended.\");\n        require(\n            block.timestamp >= start,\n            \"This voting session did not start yet.\"\n        );\n        require(choicesMap[choice], \"Invalid choice.\");\n        require(\n            votesPerUser[msg.sender] + numberOfVotes <= numOfVotesPerUser,\n            \"Exceeded number of votes per user.\"\n        );\n\n        votesPerUser[msg.sender] += numberOfVotes;\n        votesPerChoice[choice] += numberOfVotes;\n    }\n\n    function addChoice(string memory choice) public onlyOwner {\n        require(block.timestamp < end, \"This voting session already ended.\");\n        require(\n            block.timestamp < start,\n            \"This voting session already started.\"\n        );\n        choices.push(choice);\n        choicesMap[choice] = true;\n    }\n\n    function getAllChoices() public view returns (string[] memory) {\n        return choices;\n    }\n\n    function getResults() public view returns (string memory) {\n        string memory results = \"\";\n        for (uint256 i = 0; i < choices.length; i++) {\n            results = append(\n                results,\n                choices[i],\n                \" => \",\n                uint2str(votesPerChoice[choices[i]]),\n                \"\\n\"\n            );\n        }\n\n        return results;\n    }\n\n    function append(\n        string memory a,\n        string memory b,\n        string memory c,\n        string memory d,\n        string memory e\n    ) internal pure returns (string memory) {\n        return string(abi.encodePacked(a, b, c, d, e));\n    }\n\n    function uint2str(uint256 _i)\n        internal\n        pure\n        returns (string memory _uintAsString)\n    {\n        if (_i == 0) {\n            return \"0\";\n        }\n        uint256 j = _i;\n        uint256 len;\n        while (j != 0) {\n            len++;\n            j /= 10;\n        }\n        bytes memory bstr = new bytes(len);\n        uint256 k = len;\n        while (_i != 0) {\n            k = k - 1;\n            uint8 temp = (48 + uint8(_i - (_i / 10) * 10));\n            bytes1 b1 = bytes1(temp);\n            bstr[k] = b1;\n            _i /= 10;\n        }\n        return string(bstr);\n    }\n}\n",
  "sourcePath": "contracts/VotingSession.sol",
  "type": "contract"
}