{
    "abi": [
        {
            "inputs": [
                {
                    "internalType": "string",
                    "name": "",
                    "type": "string"
                }
            ],
            "name": "addressesOfVotingSessions",
            "outputs": [
                {
                    "internalType": "address",
                    "name": "",
                    "type": "address"
                }
            ],
            "stateMutability": "view",
            "type": "function"
        },
        {
            "inputs": [
                {
                    "internalType": "string",
                    "name": "symbol",
                    "type": "string"
                },
                {
                    "internalType": "uint256",
                    "name": "start",
                    "type": "uint256"
                },
                {
                    "internalType": "uint256",
                    "name": "end",
                    "type": "uint256"
                },
                {
                    "internalType": "uint8",
                    "name": "numOfVotes",
                    "type": "uint8"
                }
            ],
            "name": "createVotingSession",
            "outputs": [
                {
                    "internalType": "address",
                    "name": "",
                    "type": "address"
                }
            ],
            "stateMutability": "nonpayable",
            "type": "function"
        },
        {
            "inputs": [],
            "name": "getAllVotinSessionsSymbols",
            "outputs": [
                {
                    "internalType": "string[]",
                    "name": "",
                    "type": "string[]"
                }
            ],
            "stateMutability": "view",
            "type": "function"
        },
        {
            "inputs": [
                {
                    "internalType": "uint256",
                    "name": "",
                    "type": "uint256"
                }
            ],
            "name": "votingSessionSymbols",
            "outputs": [
                {
                    "internalType": "string",
                    "name": "",
                    "type": "string"
                }
            ],
            "stateMutability": "view",
            "type": "function"
        }
    ],
    "bytecode": "608060405234801561001057600080fd5b50611d26806100206000396000f3fe60806040523480156200001157600080fd5b5060043610620000525760003560e01c806337d0f87414620000575780633b01f45a1462000086578063a5237f75146200009f578063bd81fe4514620000ef575b600080fd5b6200006e6200006836600462000523565b62000106565b6040516200007d91906200059e565b60405180910390f35b62000090620001bb565b6040516200007d9190620005ba565b620000d6620000b0366004620006cb565b80516020818301810180516001825292820191909301209152546001600160a01b031681565b6040516001600160a01b0390911681526020016200007d565b620000d6620001003660046200070c565b6200029e565b600081815481106200011757600080fd5b90600052602060002001600091509050805462000134906200077a565b80601f016020809104026020016040519081016040528092919081815260200182805462000162906200077a565b8015620001b35780601f106200018757610100808354040283529160200191620001b3565b820191906000526020600020905b8154815290600101906020018083116200019557829003601f168201915b505050505081565b60606000805480602002602001604051908101604052809291908181526020016000905b828210156200029557838290600052602060002001805462000201906200077a565b80601f01602080910402602001604051908101604052809291908181526020018280546200022f906200077a565b8015620002805780601f10620002545761010080835404028352916020019162000280565b820191906000526020600020905b8154815290600101906020018083116200026257829003601f168201915b505050505081526020019060010190620001df565b50505050905090565b6000806001600160a01b0316600186604051620002bc9190620007b7565b908152604051908190036020019020546001600160a01b0316146200033f5760405162461bcd60e51b815260206004820152602f60248201527f566f74696e672073657373696f6e207769746820746869732073796d626f6c2060448201526e30b63932b0b23c9032bc34b9ba399760891b606482015260840160405180910390fd5b60008585858560405162000353906200046f565b620003629493929190620007d5565b604051809103906000f0801580156200037f573d6000803e3d6000fd5b5060405163f2fde38b60e01b81523360048201529091506001600160a01b0382169063f2fde38b90602401600060405180830381600087803b158015620003c557600080fd5b505af1158015620003da573d6000803e3d6000fd5b50506000805460018101825590805288516200042293507f290decd9548b62a8d60345a988386fc84ba6bc95484008f6362f93160ef3e563909101915060208901906200047d565b5080600187604051620004369190620007b7565b90815260405190819003602001902080546001600160a01b03929092166001600160a01b03199092169190911790559050949350505050565b6114e7806200080a83390190565b8280546200048b906200077a565b90600052602060002090601f016020900481019282620004af5760008555620004fa565b82601f10620004ca57805160ff1916838001178555620004fa565b82800160010185558215620004fa579182015b82811115620004fa578251825591602001919060010190620004dd565b50620005089291506200050c565b5090565b5b808211156200050857600081556001016200050d565b6000602082840312156200053657600080fd5b5035919050565b60005b838110156200055a57818101518382015260200162000540565b838111156200056a576000848401525b50505050565b600081518084526200058a8160208601602086016200053d565b601f01601f19169290920160200192915050565b602081526000620005b3602083018462000570565b9392505050565b6000602080830181845280855180835260408601915060408160051b870101925083870160005b828110156200061357603f198886030184526200060085835162000570565b94509285019290850190600101620005e1565b5092979650505050505050565b634e487b7160e01b600052604160045260246000fd5b600082601f8301126200064857600080fd5b813567ffffffffffffffff8082111562000666576200066662000620565b604051601f8301601f19908116603f0116810190828211818310171562000691576200069162000620565b81604052838152866020858801011115620006ab57600080fd5b836020870160208301376000602085830101528094505050505092915050565b600060208284031215620006de57600080fd5b813567ffffffffffffffff811115620006f657600080fd5b620007048482850162000636565b949350505050565b600080600080608085870312156200072357600080fd5b843567ffffffffffffffff8111156200073b57600080fd5b620007498782880162000636565b9450506020850135925060408501359150606085013560ff811681146200076f57600080fd5b939692955090935050565b600181811c908216806200078f57607f821691505b60208210811415620007b157634e487b7160e01b600052602260045260246000fd5b50919050565b60008251620007cb8184602087016200053d565b9190910192915050565b608081526000620007ea608083018762000570565b602083019590955250604081019290925260ff1660609091015291905056fe60806040523480156200001157600080fd5b50604051620014e7380380620014e783398101604081905262000034916200020c565b6200003f33620000e9565b60008160ff1611620000b05760405162461bcd60e51b815260206004820152603060248201527f4e756d626572206f6620766f746573207065722075736572206d75737420626560448201526f1033b932b0ba32b9103a3430b710181760811b606482015260840160405180910390fd5b8351620000c590600190602087019062000139565b506002929092556003556004805460ff191660ff909216919091179055506200034e565b600080546001600160a01b038381166001600160a01b0319831681178455604051919092169283917f8be0079c531659141344cd1fd0a4f28419497f9722a3daafe3b4186f6b6457e09190a35050565b828054620001479062000311565b90600052602060002090601f0160209004810192826200016b5760008555620001b6565b82601f106200018657805160ff1916838001178555620001b6565b82800160010185558215620001b6579182015b82811115620001b657825182559160200191906001019062000199565b50620001c4929150620001c8565b5090565b5b80821115620001c45760008155600101620001c9565b634e487b7160e01b600052604160045260246000fd5b805160ff811681146200020757600080fd5b919050565b600080600080608085870312156200022357600080fd5b84516001600160401b03808211156200023b57600080fd5b818701915087601f8301126200025057600080fd5b815181811115620002655762000265620001df565b604051601f8201601f19908116603f01168101908382118183101715620002905762000290620001df565b81604052828152602093508a84848701011115620002ad57600080fd5b600091505b82821015620002d15784820184015181830185015290830190620002b2565b82821115620002e35760008484830101525b8098505050508087015194505050604085015191506200030660608601620001f5565b905092959194509250565b600181811c908216806200032657607f821691505b602082108114156200034857634e487b7160e01b600052602260045260246000fd5b50919050565b611189806200035e6000396000f3fe608060405234801561001057600080fd5b50600436106101005760003560e01c806395d89b4111610097578063e97995dc11610066578063e97995dc14610261578063efbe1c1c14610276578063f2fde38b1461027f578063f6fd7fde1461029257600080fd5b806395d89b4114610212578063be9a65551461021a578063bf247f7914610231578063dde06f491461023e57600080fd5b8063715018a6116100d3578063715018a6146101985780638da5cb5b146101a057806390ca27f3146101bb57806391623640146101ce57600080fd5b806322517a16146101055780632aed8692146101485780634717f97c1461016e5780635fa520bb14610183575b600080fd5b610133610113366004610cea565b805160208183018101805160078252928201919093012091525460ff1681565b60405190151581526020015b60405180910390f35b3360009081526005602052604090205460ff165b60405160ff909116815260200161013f565b6101766102a5565b60405161013f9190610d83565b610196610191366004610cea565b61040d565b005b6101966105a7565b6000546040516001600160a01b03909116815260200161013f565b6101966101c9366004610d9d565b6105dd565b6101fe6101dc366004610cea565b805160208183018101805160088252928201919093012091525462ffffff1681565b60405162ffffff909116815260200161013f565b6101766107d3565b61022360025481565b60405190815260200161013f565b60045461015c9060ff1681565b61015c61024c366004610df5565b60056020526000908152604090205460ff1681565b610269610861565b60405161013f9190610e1e565b61022360035481565b61019661028d366004610df5565b61093a565b6101766102a0366004610e80565b6109d5565b60408051602081019091526000808252606091905b600654811015610407576103f382600683815481106102db576102db610e99565b9060005260206000200180546102f090610eaf565b80601f016020809104026020016040519081016040528092919081815260200182805461031c90610eaf565b80156103695780601f1061033e57610100808354040283529160200191610369565b820191906000526020600020905b81548152906001019060200180831161034c57829003601f168201915b5050505050604051806040016040528060048152602001630101e9f160e51b8152506103d46008600687815481106103a3576103a3610e99565b906000526020600020016040516103ba9190610ee4565b9081526040519081900360200190205462ffffff16610a00565b604051806040016040528060018152602001600560f91b815250610b29565b9150806103ff81610f96565b9150506102ba565b50919050565b6000546001600160a01b031633146104405760405162461bcd60e51b815260040161043790610fb1565b60405180910390fd5b60035442106104615760405162461bcd60e51b815260040161043790610fe6565b60025442106104be5760405162461bcd60e51b8152602060048201526024808201527f5468697320766f74696e672073657373696f6e20616c726561647920737461726044820152633a32b21760e11b6064820152608401610437565b6007816040516104ce9190611028565b9081526040519081900360200190205460ff161561052e5760405162461bcd60e51b815260206004820152601b60248201527f546869732063686f69636520616c7265616479206578697374732e00000000006044820152606401610437565b600680546001810182556000919091528151610571917ff652222313e28459528d920b65115c16c04f3efc82aaedc97be59f3f377c0d3f01906020840190610bae565b5060016007826040516105849190611028565b908152604051908190036020019020805491151560ff1990921691909117905550565b6000546001600160a01b031633146105d15760405162461bcd60e51b815260040161043790610fb1565b6105db6000610b5e565b565b60035442106105fe5760405162461bcd60e51b815260040161043790610fe6565b60025442101561065f5760405162461bcd60e51b815260206004820152602660248201527f5468697320766f74696e672073657373696f6e20646964206e6f7420737461726044820152653a103cb2ba1760d11b6064820152608401610437565b60078260405161066f9190611028565b9081526040519081900360200190205460ff166106c05760405162461bcd60e51b815260206004820152600f60248201526e24b73b30b634b21031b437b4b1b29760891b6044820152606401610437565b6004543360009081526005602052604090205460ff918216916106e591849116611044565b60ff1611156107415760405162461bcd60e51b815260206004820152602260248201527f4578636565646564206e756d626572206f6620766f7465732070657220757365604482015261391760f11b6064820152608401610437565b336000908152600560205260408120805483929061076390849060ff16611044565b92506101000a81548160ff021916908360ff1602179055508060ff1660088360405161078f9190611028565b90815260405190819003602001902080546000906107b390849062ffffff16611069565b92506101000a81548162ffffff021916908362ffffff1602179055505050565b600180546107e090610eaf565b80601f016020809104026020016040519081016040528092919081815260200182805461080c90610eaf565b80156108595780601f1061082e57610100808354040283529160200191610859565b820191906000526020600020905b81548152906001019060200180831161083c57829003601f168201915b505050505081565b60606006805480602002602001604051908101604052809291908181526020016000905b828210156109315783829060005260206000200180546108a490610eaf565b80601f01602080910402602001604051908101604052809291908181526020018280546108d090610eaf565b801561091d5780601f106108f25761010080835404028352916020019161091d565b820191906000526020600020905b81548152906001019060200180831161090057829003601f168201915b505050505081526020019060010190610885565b50505050905090565b6000546001600160a01b031633146109645760405162461bcd60e51b815260040161043790610fb1565b6001600160a01b0381166109c95760405162461bcd60e51b815260206004820152602660248201527f4f776e61626c653a206e6577206f776e657220697320746865207a65726f206160448201526564647265737360d01b6064820152608401610437565b6109d281610b5e565b50565b600681815481106109e557600080fd5b9060005260206000200160009150905080546107e090610eaf565b606081610a245750506040805180820190915260018152600360fc1b602082015290565b8160005b8115610a4e5780610a3881610f96565b9150610a479050600a83611090565b9150610a28565b60008167ffffffffffffffff811115610a6957610a69610c47565b6040519080825280601f01601f191660200182016040528015610a93576020820181803683370190505b509050815b8515610b2057610aa96001826110b2565b90506000610ab8600a88611090565b610ac390600a6110c9565b610acd90886110b2565b610ad8906030611044565b905060008160f81b905080848481518110610af557610af5610e99565b60200101906001600160f81b031916908160001a905350610b17600a89611090565b97505050610a98565b50949350505050565b60608585858585604051602001610b449594939291906110e8565b604051602081830303815290604052905095945050505050565b600080546001600160a01b038381166001600160a01b0319831681178455604051919092169283917f8be0079c531659141344cd1fd0a4f28419497f9722a3daafe3b4186f6b6457e09190a35050565b828054610bba90610eaf565b90600052602060002090601f016020900481019282610bdc5760008555610c22565b82601f10610bf557805160ff1916838001178555610c22565b82800160010185558215610c22579182015b82811115610c22578251825591602001919060010190610c07565b50610c2e929150610c32565b5090565b5b80821115610c2e5760008155600101610c33565b634e487b7160e01b600052604160045260246000fd5b600082601f830112610c6e57600080fd5b813567ffffffffffffffff80821115610c8957610c89610c47565b604051601f8301601f19908116603f01168101908282118183101715610cb157610cb1610c47565b81604052838152866020858801011115610cca57600080fd5b836020870160208301376000602085830101528094505050505092915050565b600060208284031215610cfc57600080fd5b813567ffffffffffffffff811115610d1357600080fd5b610d1f84828501610c5d565b949350505050565b60005b83811015610d42578181015183820152602001610d2a565b83811115610d51576000848401525b50505050565b60008151808452610d6f816020860160208601610d27565b601f01601f19169290920160200192915050565b602081526000610d966020830184610d57565b9392505050565b60008060408385031215610db057600080fd5b823567ffffffffffffffff811115610dc757600080fd5b610dd385828601610c5d565b925050602083013560ff81168114610dea57600080fd5b809150509250929050565b600060208284031215610e0757600080fd5b81356001600160a01b0381168114610d9657600080fd5b6000602080830181845280855180835260408601915060408160051b870101925083870160005b82811015610e7357603f19888603018452610e61858351610d57565b94509285019290850190600101610e45565b5092979650505050505050565b600060208284031215610e9257600080fd5b5035919050565b634e487b7160e01b600052603260045260246000fd5b600181811c90821680610ec357607f821691505b6020821081141561040757634e487b7160e01b600052602260045260246000fd5b600080835481600182811c915080831680610f0057607f831692505b6020808410821415610f2057634e487b7160e01b86526022600452602486fd5b818015610f345760018114610f4557610f72565b60ff19861689528489019650610f72565b60008a81526020902060005b86811015610f6a5781548b820152908501908301610f51565b505084890196505b509498975050505050505050565b634e487b7160e01b600052601160045260246000fd5b6000600019821415610faa57610faa610f80565b5060010190565b6020808252818101527f4f776e61626c653a2063616c6c6572206973206e6f7420746865206f776e6572604082015260600190565b60208082526022908201527f5468697320766f74696e672073657373696f6e20616c726561647920656e6465604082015261321760f11b606082015260800190565b6000825161103a818460208701610d27565b9190910192915050565b600060ff821660ff84168060ff0382111561106157611061610f80565b019392505050565b600062ffffff80831681851680830382111561108757611087610f80565b01949350505050565b6000826110ad57634e487b7160e01b600052601260045260246000fd5b500490565b6000828210156110c4576110c4610f80565b500390565b60008160001904831182151516156110e3576110e3610f80565b500290565b600086516110fa818460208b01610d27565b86519083019061110e818360208b01610d27565b8651910190611121818360208a01610d27565b8551910190611134818360208901610d27565b8451910190611147818360208801610d27565b0197965050505050505056fea26469706673582212205dcde27b4d22bb8a776b13a461ae60994e0eb6e929db655ac3f28a06b0bf966c64736f6c634300080b0033a264697066735822122065e03f0dac4b98d73e9a233f970caa433d38ec452e17f9157a591b3b534fb80c64736f6c634300080b0033",
    "bytecodeSha1": "e393cbefea61f8f8db80024211c21787c45df803",
    "compiler": {
        "evm_version": "istanbul",
        "optimizer": {
            "enabled": true,
            "runs": 200
        },
        "version": "0.8.11+commit.d7f03943"
    },
    "contractName": "VotingHub",
    "language": "Solidity",
    "natspec": {
        "kind": "dev",
        "methods": {},
        "version": 1
    },
    "opcodes": "PUSH1 0x80 PUSH1 0x40 MSTORE CALLVALUE DUP1 ISZERO PUSH3 0x11 JUMPI PUSH1 0x0 DUP1 REVERT JUMPDEST POP PUSH1 0x4 CALLDATASIZE LT PUSH3 0x52 JUMPI PUSH1 0x0 CALLDATALOAD PUSH1 0xE0 SHR DUP1 PUSH4 0x37D0F874 EQ PUSH3 0x57 JUMPI DUP1 PUSH4 0x3B01F45A EQ PUSH3 0x86 JUMPI DUP1 PUSH4 0xA5237F75 EQ PUSH3 0x9F JUMPI DUP1 PUSH4 0xBD81FE45 EQ PUSH3 0xEF JUMPI JUMPDEST PUSH1 0x0 DUP1 REVERT JUMPDEST PUSH3 0x6E PUSH3 0x68 CALLDATASIZE PUSH1 0x4 PUSH3 0x523 JUMP JUMPDEST PUSH3 0x106 JUMP JUMPDEST PUSH1 0x40 MLOAD PUSH3 0x7D SWAP2 SWAP1 PUSH3 0x59E JUMP JUMPDEST PUSH1 0x40 MLOAD DUP1 SWAP2 SUB SWAP1 RETURN JUMPDEST PUSH3 0x90 PUSH3 0x1BB JUMP JUMPDEST PUSH1 0x40 MLOAD PUSH3 0x7D SWAP2 SWAP1 PUSH3 0x5BA JUMP JUMPDEST PUSH3 0xD6 PUSH3 0xB0 CALLDATASIZE PUSH1 0x4 PUSH3 0x6CB JUMP JUMPDEST DUP1 MLOAD PUSH1 0x20 DUP2 DUP4 ADD DUP2 ADD DUP1 MLOAD PUSH1 0x1 DUP3 MSTORE SWAP3 DUP3 ADD SWAP2 SWAP1 SWAP4 ADD KECCAK256 SWAP2 MSTORE SLOAD PUSH1 0x1 PUSH1 0x1 PUSH1 0xA0 SHL SUB AND DUP2 JUMP JUMPDEST PUSH1 0x40 MLOAD PUSH1 0x1 PUSH1 0x1 PUSH1 0xA0 SHL SUB SWAP1 SWAP2 AND DUP2 MSTORE PUSH1 0x20 ADD PUSH3 0x7D JUMP JUMPDEST PUSH3 0xD6 PUSH3 0x100 CALLDATASIZE PUSH1 0x4 PUSH3 0x70C JUMP JUMPDEST PUSH3 0x29E JUMP JUMPDEST PUSH1 0x0 DUP2 DUP2 SLOAD DUP2 LT PUSH3 0x117 JUMPI PUSH1 0x0 DUP1 REVERT JUMPDEST SWAP1 PUSH1 0x0 MSTORE PUSH1 0x20 PUSH1 0x0 KECCAK256 ADD PUSH1 0x0 SWAP2 POP SWAP1 POP DUP1 SLOAD PUSH3 0x134 SWAP1 PUSH3 0x77A JUMP JUMPDEST DUP1 PUSH1 0x1F ADD PUSH1 0x20 DUP1 SWAP2 DIV MUL PUSH1 0x20 ADD PUSH1 0x40 MLOAD SWAP1 DUP2 ADD PUSH1 0x40 MSTORE DUP1 SWAP3 SWAP2 SWAP1 DUP2 DUP2 MSTORE PUSH1 0x20 ADD DUP3 DUP1 SLOAD PUSH3 0x162 SWAP1 PUSH3 0x77A JUMP JUMPDEST DUP1 ISZERO PUSH3 0x1B3 JUMPI DUP1 PUSH1 0x1F LT PUSH3 0x187 JUMPI PUSH2 0x100 DUP1 DUP4 SLOAD DIV MUL DUP4 MSTORE SWAP2 PUSH1 0x20 ADD SWAP2 PUSH3 0x1B3 JUMP JUMPDEST DUP3 ADD SWAP2 SWAP1 PUSH1 0x0 MSTORE PUSH1 0x20 PUSH1 0x0 KECCAK256 SWAP1 JUMPDEST DUP2 SLOAD DUP2 MSTORE SWAP1 PUSH1 0x1 ADD SWAP1 PUSH1 0x20 ADD DUP1 DUP4 GT PUSH3 0x195 JUMPI DUP3 SWAP1 SUB PUSH1 0x1F AND DUP3 ADD SWAP2 JUMPDEST POP POP POP POP POP DUP2 JUMP JUMPDEST PUSH1 0x60 PUSH1 0x0 DUP1 SLOAD DUP1 PUSH1 0x20 MUL PUSH1 0x20 ADD PUSH1 0x40 MLOAD SWAP1 DUP2 ADD PUSH1 0x40 MSTORE DUP1 SWAP3 SWAP2 SWAP1 DUP2 DUP2 MSTORE PUSH1 0x20 ADD PUSH1 0x0 SWAP1 JUMPDEST DUP3 DUP3 LT ISZERO PUSH3 0x295 JUMPI DUP4 DUP3 SWAP1 PUSH1 0x0 MSTORE PUSH1 0x20 PUSH1 0x0 KECCAK256 ADD DUP1 SLOAD PUSH3 0x201 SWAP1 PUSH3 0x77A JUMP JUMPDEST DUP1 PUSH1 0x1F ADD PUSH1 0x20 DUP1 SWAP2 DIV MUL PUSH1 0x20 ADD PUSH1 0x40 MLOAD SWAP1 DUP2 ADD PUSH1 0x40 MSTORE DUP1 SWAP3 SWAP2 SWAP1 DUP2 DUP2 MSTORE PUSH1 0x20 ADD DUP3 DUP1 SLOAD PUSH3 0x22F SWAP1 PUSH3 0x77A JUMP JUMPDEST DUP1 ISZERO PUSH3 0x280 JUMPI DUP1 PUSH1 0x1F LT PUSH3 0x254 JUMPI PUSH2 0x100 DUP1 DUP4 SLOAD DIV MUL DUP4 MSTORE SWAP2 PUSH1 0x20 ADD SWAP2 PUSH3 0x280 JUMP JUMPDEST DUP3 ADD SWAP2 SWAP1 PUSH1 0x0 MSTORE PUSH1 0x20 PUSH1 0x0 KECCAK256 SWAP1 JUMPDEST DUP2 SLOAD DUP2 MSTORE SWAP1 PUSH1 0x1 ADD SWAP1 PUSH1 0x20 ADD DUP1 DUP4 GT PUSH3 0x262 JUMPI DUP3 SWAP1 SUB PUSH1 0x1F AND DUP3 ADD SWAP2 JUMPDEST POP POP POP POP POP DUP2 MSTORE PUSH1 0x20 ADD SWAP1 PUSH1 0x1 ADD SWAP1 PUSH3 0x1DF JUMP JUMPDEST POP POP POP POP SWAP1 POP SWAP1 JUMP JUMPDEST PUSH1 0x0 DUP1 PUSH1 0x1 PUSH1 0x1 PUSH1 0xA0 SHL SUB AND PUSH1 0x1 DUP7 PUSH1 0x40 MLOAD PUSH3 0x2BC SWAP2 SWAP1 PUSH3 0x7B7 JUMP JUMPDEST SWAP1 DUP2 MSTORE PUSH1 0x40 MLOAD SWAP1 DUP2 SWAP1 SUB PUSH1 0x20 ADD SWAP1 KECCAK256 SLOAD PUSH1 0x1 PUSH1 0x1 PUSH1 0xA0 SHL SUB AND EQ PUSH3 0x33F JUMPI PUSH1 0x40 MLOAD PUSH3 0x461BCD PUSH1 0xE5 SHL DUP2 MSTORE PUSH1 0x20 PUSH1 0x4 DUP3 ADD MSTORE PUSH1 0x2F PUSH1 0x24 DUP3 ADD MSTORE PUSH32 0x566F74696E672073657373696F6E207769746820746869732073796D626F6C20 PUSH1 0x44 DUP3 ADD MSTORE PUSH15 0x30B63932B0B23C9032BC34B9BA3997 PUSH1 0x89 SHL PUSH1 0x64 DUP3 ADD MSTORE PUSH1 0x84 ADD PUSH1 0x40 MLOAD DUP1 SWAP2 SUB SWAP1 REVERT JUMPDEST PUSH1 0x0 DUP6 DUP6 DUP6 DUP6 PUSH1 0x40 MLOAD PUSH3 0x353 SWAP1 PUSH3 0x46F JUMP JUMPDEST PUSH3 0x362 SWAP5 SWAP4 SWAP3 SWAP2 SWAP1 PUSH3 0x7D5 JUMP JUMPDEST PUSH1 0x40 MLOAD DUP1 SWAP2 SUB SWAP1 PUSH1 0x0 CREATE DUP1 ISZERO DUP1 ISZERO PUSH3 0x37F JUMPI RETURNDATASIZE PUSH1 0x0 DUP1 RETURNDATACOPY RETURNDATASIZE PUSH1 0x0 REVERT JUMPDEST POP PUSH1 0x40 MLOAD PUSH4 0xF2FDE38B PUSH1 0xE0 SHL DUP2 MSTORE CALLER PUSH1 0x4 DUP3 ADD MSTORE SWAP1 SWAP2 POP PUSH1 0x1 PUSH1 0x1 PUSH1 0xA0 SHL SUB DUP3 AND SWAP1 PUSH4 0xF2FDE38B SWAP1 PUSH1 0x24 ADD PUSH1 0x0 PUSH1 0x40 MLOAD DUP1 DUP4 SUB DUP2 PUSH1 0x0 DUP8 DUP1 EXTCODESIZE ISZERO DUP1 ISZERO PUSH3 0x3C5 JUMPI PUSH1 0x0 DUP1 REVERT JUMPDEST POP GAS CALL ISZERO DUP1 ISZERO PUSH3 0x3DA JUMPI RETURNDATASIZE PUSH1 0x0 DUP1 RETURNDATACOPY RETURNDATASIZE PUSH1 0x0 REVERT JUMPDEST POP POP PUSH1 0x0 DUP1 SLOAD PUSH1 0x1 DUP2 ADD DUP3 SSTORE SWAP1 DUP1 MSTORE DUP9 MLOAD PUSH3 0x422 SWAP4 POP PUSH32 0x290DECD9548B62A8D60345A988386FC84BA6BC95484008F6362F93160EF3E563 SWAP1 SWAP2 ADD SWAP2 POP PUSH1 0x20 DUP10 ADD SWAP1 PUSH3 0x47D JUMP JUMPDEST POP DUP1 PUSH1 0x1 DUP8 PUSH1 0x40 MLOAD PUSH3 0x436 SWAP2 SWAP1 PUSH3 0x7B7 JUMP JUMPDEST SWAP1 DUP2 MSTORE PUSH1 0x40 MLOAD SWAP1 DUP2 SWAP1 SUB PUSH1 0x20 ADD SWAP1 KECCAK256 DUP1 SLOAD PUSH1 0x1 PUSH1 0x1 PUSH1 0xA0 SHL SUB SWAP3 SWAP1 SWAP3 AND PUSH1 0x1 PUSH1 0x1 PUSH1 0xA0 SHL SUB NOT SWAP1 SWAP3 AND SWAP2 SWAP1 SWAP2 OR SWAP1 SSTORE SWAP1 POP SWAP5 SWAP4 POP POP POP POP JUMP JUMPDEST PUSH2 0x14E7 DUP1 PUSH3 0x80A DUP4 CODECOPY ADD SWAP1 JUMP JUMPDEST DUP3 DUP1 SLOAD PUSH3 0x48B SWAP1 PUSH3 0x77A JUMP JUMPDEST SWAP1 PUSH1 0x0 MSTORE PUSH1 0x20 PUSH1 0x0 KECCAK256 SWAP1 PUSH1 0x1F ADD PUSH1 0x20 SWAP1 DIV DUP2 ADD SWAP3 DUP3 PUSH3 0x4AF JUMPI PUSH1 0x0 DUP6 SSTORE PUSH3 0x4FA JUMP JUMPDEST DUP3 PUSH1 0x1F LT PUSH3 0x4CA JUMPI DUP1 MLOAD PUSH1 0xFF NOT AND DUP4 DUP1 ADD OR DUP6 SSTORE PUSH3 0x4FA JUMP JUMPDEST DUP3 DUP1 ADD PUSH1 0x1 ADD DUP6 SSTORE DUP3 ISZERO PUSH3 0x4FA JUMPI SWAP2 DUP3 ADD JUMPDEST DUP3 DUP2 GT ISZERO PUSH3 0x4FA JUMPI DUP3 MLOAD DUP3 SSTORE SWAP2 PUSH1 0x20 ADD SWAP2 SWAP1 PUSH1 0x1 ADD SWAP1 PUSH3 0x4DD JUMP JUMPDEST POP PUSH3 0x508 SWAP3 SWAP2 POP PUSH3 0x50C JUMP JUMPDEST POP SWAP1 JUMP JUMPDEST JUMPDEST DUP1 DUP3 GT ISZERO PUSH3 0x508 JUMPI PUSH1 0x0 DUP2 SSTORE PUSH1 0x1 ADD PUSH3 0x50D JUMP JUMPDEST PUSH1 0x0 PUSH1 0x20 DUP3 DUP5 SUB SLT ISZERO PUSH3 0x536 JUMPI PUSH1 0x0 DUP1 REVERT JUMPDEST POP CALLDATALOAD SWAP2 SWAP1 POP JUMP JUMPDEST PUSH1 0x0 JUMPDEST DUP4 DUP2 LT ISZERO PUSH3 0x55A JUMPI DUP2 DUP2 ADD MLOAD DUP4 DUP3 ADD MSTORE PUSH1 0x20 ADD PUSH3 0x540 JUMP JUMPDEST DUP4 DUP2 GT ISZERO PUSH3 0x56A JUMPI PUSH1 0x0 DUP5 DUP5 ADD MSTORE JUMPDEST POP POP POP POP JUMP JUMPDEST PUSH1 0x0 DUP2 MLOAD DUP1 DUP5 MSTORE PUSH3 0x58A DUP2 PUSH1 0x20 DUP7 ADD PUSH1 0x20 DUP7 ADD PUSH3 0x53D JUMP JUMPDEST PUSH1 0x1F ADD PUSH1 0x1F NOT AND SWAP3 SWAP1 SWAP3 ADD PUSH1 0x20 ADD SWAP3 SWAP2 POP POP JUMP JUMPDEST PUSH1 0x20 DUP2 MSTORE PUSH1 0x0 PUSH3 0x5B3 PUSH1 0x20 DUP4 ADD DUP5 PUSH3 0x570 JUMP JUMPDEST SWAP4 SWAP3 POP POP POP JUMP JUMPDEST PUSH1 0x0 PUSH1 0x20 DUP1 DUP4 ADD DUP2 DUP5 MSTORE DUP1 DUP6 MLOAD DUP1 DUP4 MSTORE PUSH1 0x40 DUP7 ADD SWAP2 POP PUSH1 0x40 DUP2 PUSH1 0x5 SHL DUP8 ADD ADD SWAP3 POP DUP4 DUP8 ADD PUSH1 0x0 JUMPDEST DUP3 DUP2 LT ISZERO PUSH3 0x613 JUMPI PUSH1 0x3F NOT DUP9 DUP7 SUB ADD DUP5 MSTORE PUSH3 0x600 DUP6 DUP4 MLOAD PUSH3 0x570 JUMP JUMPDEST SWAP5 POP SWAP3 DUP6 ADD SWAP3 SWAP1 DUP6 ADD SWAP1 PUSH1 0x1 ADD PUSH3 0x5E1 JUMP JUMPDEST POP SWAP3 SWAP8 SWAP7 POP POP POP POP POP POP POP JUMP JUMPDEST PUSH4 0x4E487B71 PUSH1 0xE0 SHL PUSH1 0x0 MSTORE PUSH1 0x41 PUSH1 0x4 MSTORE PUSH1 0x24 PUSH1 0x0 REVERT JUMPDEST PUSH1 0x0 DUP3 PUSH1 0x1F DUP4 ADD SLT PUSH3 0x648 JUMPI PUSH1 0x0 DUP1 REVERT JUMPDEST DUP2 CALLDATALOAD PUSH8 0xFFFFFFFFFFFFFFFF DUP1 DUP3 GT ISZERO PUSH3 0x666 JUMPI PUSH3 0x666 PUSH3 0x620 JUMP JUMPDEST PUSH1 0x40 MLOAD PUSH1 0x1F DUP4 ADD PUSH1 0x1F NOT SWAP1 DUP2 AND PUSH1 0x3F ADD AND DUP2 ADD SWAP1 DUP3 DUP3 GT DUP2 DUP4 LT OR ISZERO PUSH3 0x691 JUMPI PUSH3 0x691 PUSH3 0x620 JUMP JUMPDEST DUP2 PUSH1 0x40 MSTORE DUP4 DUP2 MSTORE DUP7 PUSH1 0x20 DUP6 DUP9 ADD ADD GT ISZERO PUSH3 0x6AB JUMPI PUSH1 0x0 DUP1 REVERT JUMPDEST DUP4 PUSH1 0x20 DUP8 ADD PUSH1 0x20 DUP4 ADD CALLDATACOPY PUSH1 0x0 PUSH1 0x20 DUP6 DUP4 ADD ADD MSTORE DUP1 SWAP5 POP POP POP POP POP SWAP3 SWAP2 POP POP JUMP JUMPDEST PUSH1 0x0 PUSH1 0x20 DUP3 DUP5 SUB SLT ISZERO PUSH3 0x6DE JUMPI PUSH1 0x0 DUP1 REVERT JUMPDEST DUP2 CALLDATALOAD PUSH8 0xFFFFFFFFFFFFFFFF DUP2 GT ISZERO PUSH3 0x6F6 JUMPI PUSH1 0x0 DUP1 REVERT JUMPDEST PUSH3 0x704 DUP5 DUP3 DUP6 ADD PUSH3 0x636 JUMP JUMPDEST SWAP5 SWAP4 POP POP POP POP JUMP JUMPDEST PUSH1 0x0 DUP1 PUSH1 0x0 DUP1 PUSH1 0x80 DUP6 DUP8 SUB SLT ISZERO PUSH3 0x723 JUMPI PUSH1 0x0 DUP1 REVERT JUMPDEST DUP5 CALLDATALOAD PUSH8 0xFFFFFFFFFFFFFFFF DUP2 GT ISZERO PUSH3 0x73B JUMPI PUSH1 0x0 DUP1 REVERT JUMPDEST PUSH3 0x749 DUP8 DUP3 DUP9 ADD PUSH3 0x636 JUMP JUMPDEST SWAP5 POP POP PUSH1 0x20 DUP6 ADD CALLDATALOAD SWAP3 POP PUSH1 0x40 DUP6 ADD CALLDATALOAD SWAP2 POP PUSH1 0x60 DUP6 ADD CALLDATALOAD PUSH1 0xFF DUP2 AND DUP2 EQ PUSH3 0x76F JUMPI PUSH1 0x0 DUP1 REVERT JUMPDEST SWAP4 SWAP7 SWAP3 SWAP6 POP SWAP1 SWAP4 POP POP JUMP JUMPDEST PUSH1 0x1 DUP2 DUP2 SHR SWAP1 DUP3 AND DUP1 PUSH3 0x78F JUMPI PUSH1 0x7F DUP3 AND SWAP2 POP JUMPDEST PUSH1 0x20 DUP3 LT DUP2 EQ ISZERO PUSH3 0x7B1 JUMPI PUSH4 0x4E487B71 PUSH1 0xE0 SHL PUSH1 0x0 MSTORE PUSH1 0x22 PUSH1 0x4 MSTORE PUSH1 0x24 PUSH1 0x0 REVERT JUMPDEST POP SWAP2 SWAP1 POP JUMP JUMPDEST PUSH1 0x0 DUP3 MLOAD PUSH3 0x7CB DUP2 DUP5 PUSH1 0x20 DUP8 ADD PUSH3 0x53D JUMP JUMPDEST SWAP2 SWAP1 SWAP2 ADD SWAP3 SWAP2 POP POP JUMP JUMPDEST PUSH1 0x80 DUP2 MSTORE PUSH1 0x0 PUSH3 0x7EA PUSH1 0x80 DUP4 ADD DUP8 PUSH3 0x570 JUMP JUMPDEST PUSH1 0x20 DUP4 ADD SWAP6 SWAP1 SWAP6 MSTORE POP PUSH1 0x40 DUP2 ADD SWAP3 SWAP1 SWAP3 MSTORE PUSH1 0xFF AND PUSH1 0x60 SWAP1 SWAP2 ADD MSTORE SWAP2 SWAP1 POP JUMP INVALID PUSH1 0x80 PUSH1 0x40 MSTORE CALLVALUE DUP1 ISZERO PUSH3 0x11 JUMPI PUSH1 0x0 DUP1 REVERT JUMPDEST POP PUSH1 0x40 MLOAD PUSH3 0x14E7 CODESIZE SUB DUP1 PUSH3 0x14E7 DUP4 CODECOPY DUP2 ADD PUSH1 0x40 DUP2 SWAP1 MSTORE PUSH3 0x34 SWAP2 PUSH3 0x20C JUMP JUMPDEST PUSH3 0x3F CALLER PUSH3 0xE9 JUMP JUMPDEST PUSH1 0x0 DUP2 PUSH1 0xFF AND GT PUSH3 0xB0 JUMPI PUSH1 0x40 MLOAD PUSH3 0x461BCD PUSH1 0xE5 SHL DUP2 MSTORE PUSH1 0x20 PUSH1 0x4 DUP3 ADD MSTORE PUSH1 0x30 PUSH1 0x24 DUP3 ADD MSTORE PUSH32 0x4E756D626572206F6620766F746573207065722075736572206D757374206265 PUSH1 0x44 DUP3 ADD MSTORE PUSH16 0x1033B932B0BA32B9103A3430B7101817 PUSH1 0x81 SHL PUSH1 0x64 DUP3 ADD MSTORE PUSH1 0x84 ADD PUSH1 0x40 MLOAD DUP1 SWAP2 SUB SWAP1 REVERT JUMPDEST DUP4 MLOAD PUSH3 0xC5 SWAP1 PUSH1 0x1 SWAP1 PUSH1 0x20 DUP8 ADD SWAP1 PUSH3 0x139 JUMP JUMPDEST POP PUSH1 0x2 SWAP3 SWAP1 SWAP3 SSTORE PUSH1 0x3 SSTORE PUSH1 0x4 DUP1 SLOAD PUSH1 0xFF NOT AND PUSH1 0xFF SWAP1 SWAP3 AND SWAP2 SWAP1 SWAP2 OR SWAP1 SSTORE POP PUSH3 0x34E JUMP JUMPDEST PUSH1 0x0 DUP1 SLOAD PUSH1 0x1 PUSH1 0x1 PUSH1 0xA0 SHL SUB DUP4 DUP2 AND PUSH1 0x1 PUSH1 0x1 PUSH1 0xA0 SHL SUB NOT DUP4 AND DUP2 OR DUP5 SSTORE PUSH1 0x40 MLOAD SWAP2 SWAP1 SWAP3 AND SWAP3 DUP4 SWAP2 PUSH32 0x8BE0079C531659141344CD1FD0A4F28419497F9722A3DAAFE3B4186F6B6457E0 SWAP2 SWAP1 LOG3 POP POP JUMP JUMPDEST DUP3 DUP1 SLOAD PUSH3 0x147 SWAP1 PUSH3 0x311 JUMP JUMPDEST SWAP1 PUSH1 0x0 MSTORE PUSH1 0x20 PUSH1 0x0 KECCAK256 SWAP1 PUSH1 0x1F ADD PUSH1 0x20 SWAP1 DIV DUP2 ADD SWAP3 DUP3 PUSH3 0x16B JUMPI PUSH1 0x0 DUP6 SSTORE PUSH3 0x1B6 JUMP JUMPDEST DUP3 PUSH1 0x1F LT PUSH3 0x186 JUMPI DUP1 MLOAD PUSH1 0xFF NOT AND DUP4 DUP1 ADD OR DUP6 SSTORE PUSH3 0x1B6 JUMP JUMPDEST DUP3 DUP1 ADD PUSH1 0x1 ADD DUP6 SSTORE DUP3 ISZERO PUSH3 0x1B6 JUMPI SWAP2 DUP3 ADD JUMPDEST DUP3 DUP2 GT ISZERO PUSH3 0x1B6 JUMPI DUP3 MLOAD DUP3 SSTORE SWAP2 PUSH1 0x20 ADD SWAP2 SWAP1 PUSH1 0x1 ADD SWAP1 PUSH3 0x199 JUMP JUMPDEST POP PUSH3 0x1C4 SWAP3 SWAP2 POP PUSH3 0x1C8 JUMP JUMPDEST POP SWAP1 JUMP JUMPDEST JUMPDEST DUP1 DUP3 GT ISZERO PUSH3 0x1C4 JUMPI PUSH1 0x0 DUP2 SSTORE PUSH1 0x1 ADD PUSH3 0x1C9 JUMP JUMPDEST PUSH4 0x4E487B71 PUSH1 0xE0 SHL PUSH1 0x0 MSTORE PUSH1 0x41 PUSH1 0x4 MSTORE PUSH1 0x24 PUSH1 0x0 REVERT JUMPDEST DUP1 MLOAD PUSH1 0xFF DUP2 AND DUP2 EQ PUSH3 0x207 JUMPI PUSH1 0x0 DUP1 REVERT JUMPDEST SWAP2 SWAP1 POP JUMP JUMPDEST PUSH1 0x0 DUP1 PUSH1 0x0 DUP1 PUSH1 0x80 DUP6 DUP8 SUB SLT ISZERO PUSH3 0x223 JUMPI PUSH1 0x0 DUP1 REVERT JUMPDEST DUP5 MLOAD PUSH1 0x1 PUSH1 0x1 PUSH1 0x40 SHL SUB DUP1 DUP3 GT ISZERO PUSH3 0x23B JUMPI PUSH1 0x0 DUP1 REVERT JUMPDEST DUP2 DUP8 ADD SWAP2 POP DUP8 PUSH1 0x1F DUP4 ADD SLT PUSH3 0x250 JUMPI PUSH1 0x0 DUP1 REVERT JUMPDEST DUP2 MLOAD DUP2 DUP2 GT ISZERO PUSH3 0x265 JUMPI PUSH3 0x265 PUSH3 0x1DF JUMP JUMPDEST PUSH1 0x40 MLOAD PUSH1 0x1F DUP3 ADD PUSH1 0x1F NOT SWAP1 DUP2 AND PUSH1 0x3F ADD AND DUP2 ADD SWAP1 DUP4 DUP3 GT DUP2 DUP4 LT OR ISZERO PUSH3 0x290 JUMPI PUSH3 0x290 PUSH3 0x1DF JUMP JUMPDEST DUP2 PUSH1 0x40 MSTORE DUP3 DUP2 MSTORE PUSH1 0x20 SWAP4 POP DUP11 DUP5 DUP5 DUP8 ADD ADD GT ISZERO PUSH3 0x2AD JUMPI PUSH1 0x0 DUP1 REVERT JUMPDEST PUSH1 0x0 SWAP2 POP JUMPDEST DUP3 DUP3 LT ISZERO PUSH3 0x2D1 JUMPI DUP5 DUP3 ADD DUP5 ADD MLOAD DUP2 DUP4 ADD DUP6 ADD MSTORE SWAP1 DUP4 ADD SWAP1 PUSH3 0x2B2 JUMP JUMPDEST DUP3 DUP3 GT ISZERO PUSH3 0x2E3 JUMPI PUSH1 0x0 DUP5 DUP5 DUP4 ADD ADD MSTORE JUMPDEST DUP1 SWAP9 POP POP POP POP DUP1 DUP8 ADD MLOAD SWAP5 POP POP POP PUSH1 0x40 DUP6 ADD MLOAD SWAP2 POP PUSH3 0x306 PUSH1 0x60 DUP7 ADD PUSH3 0x1F5 JUMP JUMPDEST SWAP1 POP SWAP3 SWAP6 SWAP2 SWAP5 POP SWAP3 POP JUMP JUMPDEST PUSH1 0x1 DUP2 DUP2 SHR SWAP1 DUP3 AND DUP1 PUSH3 0x326 JUMPI PUSH1 0x7F DUP3 AND SWAP2 POP JUMPDEST PUSH1 0x20 DUP3 LT DUP2 EQ ISZERO PUSH3 0x348 JUMPI PUSH4 0x4E487B71 PUSH1 0xE0 SHL PUSH1 0x0 MSTORE PUSH1 0x22 PUSH1 0x4 MSTORE PUSH1 0x24 PUSH1 0x0 REVERT JUMPDEST POP SWAP2 SWAP1 POP JUMP JUMPDEST PUSH2 0x1189 DUP1 PUSH3 0x35E PUSH1 0x0 CODECOPY PUSH1 0x0 RETURN INVALID PUSH1 0x80 PUSH1 0x40 MSTORE CALLVALUE DUP1 ISZERO PUSH2 0x10 JUMPI PUSH1 0x0 DUP1 REVERT JUMPDEST POP PUSH1 0x4 CALLDATASIZE LT PUSH2 0x100 JUMPI PUSH1 0x0 CALLDATALOAD PUSH1 0xE0 SHR DUP1 PUSH4 0x95D89B41 GT PUSH2 0x97 JUMPI DUP1 PUSH4 0xE97995DC GT PUSH2 0x66 JUMPI DUP1 PUSH4 0xE97995DC EQ PUSH2 0x261 JUMPI DUP1 PUSH4 0xEFBE1C1C EQ PUSH2 0x276 JUMPI DUP1 PUSH4 0xF2FDE38B EQ PUSH2 0x27F JUMPI DUP1 PUSH4 0xF6FD7FDE EQ PUSH2 0x292 JUMPI PUSH1 0x0 DUP1 REVERT JUMPDEST DUP1 PUSH4 0x95D89B41 EQ PUSH2 0x212 JUMPI DUP1 PUSH4 0xBE9A6555 EQ PUSH2 0x21A JUMPI DUP1 PUSH4 0xBF247F79 EQ PUSH2 0x231 JUMPI DUP1 PUSH4 0xDDE06F49 EQ PUSH2 0x23E JUMPI PUSH1 0x0 DUP1 REVERT JUMPDEST DUP1 PUSH4 0x715018A6 GT PUSH2 0xD3 JUMPI DUP1 PUSH4 0x715018A6 EQ PUSH2 0x198 JUMPI DUP1 PUSH4 0x8DA5CB5B EQ PUSH2 0x1A0 JUMPI DUP1 PUSH4 0x90CA27F3 EQ PUSH2 0x1BB JUMPI DUP1 PUSH4 0x91623640 EQ PUSH2 0x1CE JUMPI PUSH1 0x0 DUP1 REVERT JUMPDEST DUP1 PUSH4 0x22517A16 EQ PUSH2 0x105 JUMPI DUP1 PUSH4 0x2AED8692 EQ PUSH2 0x148 JUMPI DUP1 PUSH4 0x4717F97C EQ PUSH2 0x16E JUMPI DUP1 PUSH4 0x5FA520BB EQ PUSH2 0x183 JUMPI JUMPDEST PUSH1 0x0 DUP1 REVERT JUMPDEST PUSH2 0x133 PUSH2 0x113 CALLDATASIZE PUSH1 0x4 PUSH2 0xCEA JUMP JUMPDEST DUP1 MLOAD PUSH1 0x20 DUP2 DUP4 ADD DUP2 ADD DUP1 MLOAD PUSH1 0x7 DUP3 MSTORE SWAP3 DUP3 ADD SWAP2 SWAP1 SWAP4 ADD KECCAK256 SWAP2 MSTORE SLOAD PUSH1 0xFF AND DUP2 JUMP JUMPDEST PUSH1 0x40 MLOAD SWAP1 ISZERO ISZERO DUP2 MSTORE PUSH1 0x20 ADD JUMPDEST PUSH1 0x40 MLOAD DUP1 SWAP2 SUB SWAP1 RETURN JUMPDEST CALLER PUSH1 0x0 SWAP1 DUP2 MSTORE PUSH1 0x5 PUSH1 0x20 MSTORE PUSH1 0x40 SWAP1 KECCAK256 SLOAD PUSH1 0xFF AND JUMPDEST PUSH1 0x40 MLOAD PUSH1 0xFF SWAP1 SWAP2 AND DUP2 MSTORE PUSH1 0x20 ADD PUSH2 0x13F JUMP JUMPDEST PUSH2 0x176 PUSH2 0x2A5 JUMP JUMPDEST PUSH1 0x40 MLOAD PUSH2 0x13F SWAP2 SWAP1 PUSH2 0xD83 JUMP JUMPDEST PUSH2 0x196 PUSH2 0x191 CALLDATASIZE PUSH1 0x4 PUSH2 0xCEA JUMP JUMPDEST PUSH2 0x40D JUMP JUMPDEST STOP JUMPDEST PUSH2 0x196 PUSH2 0x5A7 JUMP JUMPDEST PUSH1 0x0 SLOAD PUSH1 0x40 MLOAD PUSH1 0x1 PUSH1 0x1 PUSH1 0xA0 SHL SUB SWAP1 SWAP2 AND DUP2 MSTORE PUSH1 0x20 ADD PUSH2 0x13F JUMP JUMPDEST PUSH2 0x196 PUSH2 0x1C9 CALLDATASIZE PUSH1 0x4 PUSH2 0xD9D JUMP JUMPDEST PUSH2 0x5DD JUMP JUMPDEST PUSH2 0x1FE PUSH2 0x1DC CALLDATASIZE PUSH1 0x4 PUSH2 0xCEA JUMP JUMPDEST DUP1 MLOAD PUSH1 0x20 DUP2 DUP4 ADD DUP2 ADD DUP1 MLOAD PUSH1 0x8 DUP3 MSTORE SWAP3 DUP3 ADD SWAP2 SWAP1 SWAP4 ADD KECCAK256 SWAP2 MSTORE SLOAD PUSH3 0xFFFFFF AND DUP2 JUMP JUMPDEST PUSH1 0x40 MLOAD PUSH3 0xFFFFFF SWAP1 SWAP2 AND DUP2 MSTORE PUSH1 0x20 ADD PUSH2 0x13F JUMP JUMPDEST PUSH2 0x176 PUSH2 0x7D3 JUMP JUMPDEST PUSH2 0x223 PUSH1 0x2 SLOAD DUP2 JUMP JUMPDEST PUSH1 0x40 MLOAD SWAP1 DUP2 MSTORE PUSH1 0x20 ADD PUSH2 0x13F JUMP JUMPDEST PUSH1 0x4 SLOAD PUSH2 0x15C SWAP1 PUSH1 0xFF AND DUP2 JUMP JUMPDEST PUSH2 0x15C PUSH2 0x24C CALLDATASIZE PUSH1 0x4 PUSH2 0xDF5 JUMP JUMPDEST PUSH1 0x5 PUSH1 0x20 MSTORE PUSH1 0x0 SWAP1 DUP2 MSTORE PUSH1 0x40 SWAP1 KECCAK256 SLOAD PUSH1 0xFF AND DUP2 JUMP JUMPDEST PUSH2 0x269 PUSH2 0x861 JUMP JUMPDEST PUSH1 0x40 MLOAD PUSH2 0x13F SWAP2 SWAP1 PUSH2 0xE1E JUMP JUMPDEST PUSH2 0x223 PUSH1 0x3 SLOAD DUP2 JUMP JUMPDEST PUSH2 0x196 PUSH2 0x28D CALLDATASIZE PUSH1 0x4 PUSH2 0xDF5 JUMP JUMPDEST PUSH2 0x93A JUMP JUMPDEST PUSH2 0x176 PUSH2 0x2A0 CALLDATASIZE PUSH1 0x4 PUSH2 0xE80 JUMP JUMPDEST PUSH2 0x9D5 JUMP JUMPDEST PUSH1 0x40 DUP1 MLOAD PUSH1 0x20 DUP2 ADD SWAP1 SWAP2 MSTORE PUSH1 0x0 DUP1 DUP3 MSTORE PUSH1 0x60 SWAP2 SWAP1 JUMPDEST PUSH1 0x6 SLOAD DUP2 LT ISZERO PUSH2 0x407 JUMPI PUSH2 0x3F3 DUP3 PUSH1 0x6 DUP4 DUP2 SLOAD DUP2 LT PUSH2 0x2DB JUMPI PUSH2 0x2DB PUSH2 0xE99 JUMP JUMPDEST SWAP1 PUSH1 0x0 MSTORE PUSH1 0x20 PUSH1 0x0 KECCAK256 ADD DUP1 SLOAD PUSH2 0x2F0 SWAP1 PUSH2 0xEAF JUMP JUMPDEST DUP1 PUSH1 0x1F ADD PUSH1 0x20 DUP1 SWAP2 DIV MUL PUSH1 0x20 ADD PUSH1 0x40 MLOAD SWAP1 DUP2 ADD PUSH1 0x40 MSTORE DUP1 SWAP3 SWAP2 SWAP1 DUP2 DUP2 MSTORE PUSH1 0x20 ADD DUP3 DUP1 SLOAD PUSH2 0x31C SWAP1 PUSH2 0xEAF JUMP JUMPDEST DUP1 ISZERO PUSH2 0x369 JUMPI DUP1 PUSH1 0x1F LT PUSH2 0x33E JUMPI PUSH2 0x100 DUP1 DUP4 SLOAD DIV MUL DUP4 MSTORE SWAP2 PUSH1 0x20 ADD SWAP2 PUSH2 0x369 JUMP JUMPDEST DUP3 ADD SWAP2 SWAP1 PUSH1 0x0 MSTORE PUSH1 0x20 PUSH1 0x0 KECCAK256 SWAP1 JUMPDEST DUP2 SLOAD DUP2 MSTORE SWAP1 PUSH1 0x1 ADD SWAP1 PUSH1 0x20 ADD DUP1 DUP4 GT PUSH2 0x34C JUMPI DUP3 SWAP1 SUB PUSH1 0x1F AND DUP3 ADD SWAP2 JUMPDEST POP POP POP POP POP PUSH1 0x40 MLOAD DUP1 PUSH1 0x40 ADD PUSH1 0x40 MSTORE DUP1 PUSH1 0x4 DUP2 MSTORE PUSH1 0x20 ADD PUSH4 0x101E9F1 PUSH1 0xE5 SHL DUP2 MSTORE POP PUSH2 0x3D4 PUSH1 0x8 PUSH1 0x6 DUP8 DUP2 SLOAD DUP2 LT PUSH2 0x3A3 JUMPI PUSH2 0x3A3 PUSH2 0xE99 JUMP JUMPDEST SWAP1 PUSH1 0x0 MSTORE PUSH1 0x20 PUSH1 0x0 KECCAK256 ADD PUSH1 0x40 MLOAD PUSH2 0x3BA SWAP2 SWAP1 PUSH2 0xEE4 JUMP JUMPDEST SWAP1 DUP2 MSTORE PUSH1 0x40 MLOAD SWAP1 DUP2 SWAP1 SUB PUSH1 0x20 ADD SWAP1 KECCAK256 SLOAD PUSH3 0xFFFFFF AND PUSH2 0xA00 JUMP JUMPDEST PUSH1 0x40 MLOAD DUP1 PUSH1 0x40 ADD PUSH1 0x40 MSTORE DUP1 PUSH1 0x1 DUP2 MSTORE PUSH1 0x20 ADD PUSH1 0x5 PUSH1 0xF9 SHL DUP2 MSTORE POP PUSH2 0xB29 JUMP JUMPDEST SWAP2 POP DUP1 PUSH2 0x3FF DUP2 PUSH2 0xF96 JUMP JUMPDEST SWAP2 POP POP PUSH2 0x2BA JUMP JUMPDEST POP SWAP2 SWAP1 POP JUMP JUMPDEST PUSH1 0x0 SLOAD PUSH1 0x1 PUSH1 0x1 PUSH1 0xA0 SHL SUB AND CALLER EQ PUSH2 0x440 JUMPI PUSH1 0x40 MLOAD PUSH3 0x461BCD PUSH1 0xE5 SHL DUP2 MSTORE PUSH1 0x4 ADD PUSH2 0x437 SWAP1 PUSH2 0xFB1 JUMP JUMPDEST PUSH1 0x40 MLOAD DUP1 SWAP2 SUB SWAP1 REVERT JUMPDEST PUSH1 0x3 SLOAD TIMESTAMP LT PUSH2 0x461 JUMPI PUSH1 0x40 MLOAD PUSH3 0x461BCD PUSH1 0xE5 SHL DUP2 MSTORE PUSH1 0x4 ADD PUSH2 0x437 SWAP1 PUSH2 0xFE6 JUMP JUMPDEST PUSH1 0x2 SLOAD TIMESTAMP LT PUSH2 0x4BE JUMPI PUSH1 0x40 MLOAD PUSH3 0x461BCD PUSH1 0xE5 SHL DUP2 MSTORE PUSH1 0x20 PUSH1 0x4 DUP3 ADD MSTORE PUSH1 0x24 DUP1 DUP3 ADD MSTORE PUSH32 0x5468697320766F74696E672073657373696F6E20616C72656164792073746172 PUSH1 0x44 DUP3 ADD MSTORE PUSH4 0x3A32B217 PUSH1 0xE1 SHL PUSH1 0x64 DUP3 ADD MSTORE PUSH1 0x84 ADD PUSH2 0x437 JUMP JUMPDEST PUSH1 0x7 DUP2 PUSH1 0x40 MLOAD PUSH2 0x4CE SWAP2 SWAP1 PUSH2 0x1028 JUMP JUMPDEST SWAP1 DUP2 MSTORE PUSH1 0x40 MLOAD SWAP1 DUP2 SWAP1 SUB PUSH1 0x20 ADD SWAP1 KECCAK256 SLOAD PUSH1 0xFF AND ISZERO PUSH2 0x52E JUMPI PUSH1 0x40 MLOAD PUSH3 0x461BCD PUSH1 0xE5 SHL DUP2 MSTORE PUSH1 0x20 PUSH1 0x4 DUP3 ADD MSTORE PUSH1 0x1B PUSH1 0x24 DUP3 ADD MSTORE PUSH32 0x546869732063686F69636520616C7265616479206578697374732E0000000000 PUSH1 0x44 DUP3 ADD MSTORE PUSH1 0x64 ADD PUSH2 0x437 JUMP JUMPDEST PUSH1 0x6 DUP1 SLOAD PUSH1 0x1 DUP2 ADD DUP3 SSTORE PUSH1 0x0 SWAP2 SWAP1 SWAP2 MSTORE DUP2 MLOAD PUSH2 0x571 SWAP2 PUSH32 0xF652222313E28459528D920B65115C16C04F3EFC82AAEDC97BE59F3F377C0D3F ADD SWAP1 PUSH1 0x20 DUP5 ADD SWAP1 PUSH2 0xBAE JUMP JUMPDEST POP PUSH1 0x1 PUSH1 0x7 DUP3 PUSH1 0x40 MLOAD PUSH2 0x584 SWAP2 SWAP1 PUSH2 0x1028 JUMP JUMPDEST SWAP1 DUP2 MSTORE PUSH1 0x40 MLOAD SWAP1 DUP2 SWAP1 SUB PUSH1 0x20 ADD SWAP1 KECCAK256 DUP1 SLOAD SWAP2 ISZERO ISZERO PUSH1 0xFF NOT SWAP1 SWAP3 AND SWAP2 SWAP1 SWAP2 OR SWAP1 SSTORE POP JUMP JUMPDEST PUSH1 0x0 SLOAD PUSH1 0x1 PUSH1 0x1 PUSH1 0xA0 SHL SUB AND CALLER EQ PUSH2 0x5D1 JUMPI PUSH1 0x40 MLOAD PUSH3 0x461BCD PUSH1 0xE5 SHL DUP2 MSTORE PUSH1 0x4 ADD PUSH2 0x437 SWAP1 PUSH2 0xFB1 JUMP JUMPDEST PUSH2 0x5DB PUSH1 0x0 PUSH2 0xB5E JUMP JUMPDEST JUMP JUMPDEST PUSH1 0x3 SLOAD TIMESTAMP LT PUSH2 0x5FE JUMPI PUSH1 0x40 MLOAD PUSH3 0x461BCD PUSH1 0xE5 SHL DUP2 MSTORE PUSH1 0x4 ADD PUSH2 0x437 SWAP1 PUSH2 0xFE6 JUMP JUMPDEST PUSH1 0x2 SLOAD TIMESTAMP LT ISZERO PUSH2 0x65F JUMPI PUSH1 0x40 MLOAD PUSH3 0x461BCD PUSH1 0xE5 SHL DUP2 MSTORE PUSH1 0x20 PUSH1 0x4 DUP3 ADD MSTORE PUSH1 0x26 PUSH1 0x24 DUP3 ADD MSTORE PUSH32 0x5468697320766F74696E672073657373696F6E20646964206E6F742073746172 PUSH1 0x44 DUP3 ADD MSTORE PUSH6 0x3A103CB2BA17 PUSH1 0xD1 SHL PUSH1 0x64 DUP3 ADD MSTORE PUSH1 0x84 ADD PUSH2 0x437 JUMP JUMPDEST PUSH1 0x7 DUP3 PUSH1 0x40 MLOAD PUSH2 0x66F SWAP2 SWAP1 PUSH2 0x1028 JUMP JUMPDEST SWAP1 DUP2 MSTORE PUSH1 0x40 MLOAD SWAP1 DUP2 SWAP1 SUB PUSH1 0x20 ADD SWAP1 KECCAK256 SLOAD PUSH1 0xFF AND PUSH2 0x6C0 JUMPI PUSH1 0x40 MLOAD PUSH3 0x461BCD PUSH1 0xE5 SHL DUP2 MSTORE PUSH1 0x20 PUSH1 0x4 DUP3 ADD MSTORE PUSH1 0xF PUSH1 0x24 DUP3 ADD MSTORE PUSH15 0x24B73B30B634B21031B437B4B1B297 PUSH1 0x89 SHL PUSH1 0x44 DUP3 ADD MSTORE PUSH1 0x64 ADD PUSH2 0x437 JUMP JUMPDEST PUSH1 0x4 SLOAD CALLER PUSH1 0x0 SWAP1 DUP2 MSTORE PUSH1 0x5 PUSH1 0x20 MSTORE PUSH1 0x40 SWAP1 KECCAK256 SLOAD PUSH1 0xFF SWAP2 DUP3 AND SWAP2 PUSH2 0x6E5 SWAP2 DUP5 SWAP2 AND PUSH2 0x1044 JUMP JUMPDEST PUSH1 0xFF AND GT ISZERO PUSH2 0x741 JUMPI PUSH1 0x40 MLOAD PUSH3 0x461BCD PUSH1 0xE5 SHL DUP2 MSTORE PUSH1 0x20 PUSH1 0x4 DUP3 ADD MSTORE PUSH1 0x22 PUSH1 0x24 DUP3 ADD MSTORE PUSH32 0x4578636565646564206E756D626572206F6620766F7465732070657220757365 PUSH1 0x44 DUP3 ADD MSTORE PUSH2 0x3917 PUSH1 0xF1 SHL PUSH1 0x64 DUP3 ADD MSTORE PUSH1 0x84 ADD PUSH2 0x437 JUMP JUMPDEST CALLER PUSH1 0x0 SWAP1 DUP2 MSTORE PUSH1 0x5 PUSH1 0x20 MSTORE PUSH1 0x40 DUP2 KECCAK256 DUP1 SLOAD DUP4 SWAP3 SWAP1 PUSH2 0x763 SWAP1 DUP5 SWAP1 PUSH1 0xFF AND PUSH2 0x1044 JUMP JUMPDEST SWAP3 POP PUSH2 0x100 EXP DUP2 SLOAD DUP2 PUSH1 0xFF MUL NOT AND SWAP1 DUP4 PUSH1 0xFF AND MUL OR SWAP1 SSTORE POP DUP1 PUSH1 0xFF AND PUSH1 0x8 DUP4 PUSH1 0x40 MLOAD PUSH2 0x78F SWAP2 SWAP1 PUSH2 0x1028 JUMP JUMPDEST SWAP1 DUP2 MSTORE PUSH1 0x40 MLOAD SWAP1 DUP2 SWAP1 SUB PUSH1 0x20 ADD SWAP1 KECCAK256 DUP1 SLOAD PUSH1 0x0 SWAP1 PUSH2 0x7B3 SWAP1 DUP5 SWAP1 PUSH3 0xFFFFFF AND PUSH2 0x1069 JUMP JUMPDEST SWAP3 POP PUSH2 0x100 EXP DUP2 SLOAD DUP2 PUSH3 0xFFFFFF MUL NOT AND SWAP1 DUP4 PUSH3 0xFFFFFF AND MUL OR SWAP1 SSTORE POP POP POP JUMP JUMPDEST PUSH1 0x1 DUP1 SLOAD PUSH2 0x7E0 SWAP1 PUSH2 0xEAF JUMP JUMPDEST DUP1 PUSH1 0x1F ADD PUSH1 0x20 DUP1 SWAP2 DIV MUL PUSH1 0x20 ADD PUSH1 0x40 MLOAD SWAP1 DUP2 ADD PUSH1 0x40 MSTORE DUP1 SWAP3 SWAP2 SWAP1 DUP2 DUP2 MSTORE PUSH1 0x20 ADD DUP3 DUP1 SLOAD PUSH2 0x80C SWAP1 PUSH2 0xEAF JUMP JUMPDEST DUP1 ISZERO PUSH2 0x859 JUMPI DUP1 PUSH1 0x1F LT PUSH2 0x82E JUMPI PUSH2 0x100 DUP1 DUP4 SLOAD DIV MUL DUP4 MSTORE SWAP2 PUSH1 0x20 ADD SWAP2 PUSH2 0x859 JUMP JUMPDEST DUP3 ADD SWAP2 SWAP1 PUSH1 0x0 MSTORE PUSH1 0x20 PUSH1 0x0 KECCAK256 SWAP1 JUMPDEST DUP2 SLOAD DUP2 MSTORE SWAP1 PUSH1 0x1 ADD SWAP1 PUSH1 0x20 ADD DUP1 DUP4 GT PUSH2 0x83C JUMPI DUP3 SWAP1 SUB PUSH1 0x1F AND DUP3 ADD SWAP2 JUMPDEST POP POP POP POP POP DUP2 JUMP JUMPDEST PUSH1 0x60 PUSH1 0x6 DUP1 SLOAD DUP1 PUSH1 0x20 MUL PUSH1 0x20 ADD PUSH1 0x40 MLOAD SWAP1 DUP2 ADD PUSH1 0x40 MSTORE DUP1 SWAP3 SWAP2 SWAP1 DUP2 DUP2 MSTORE PUSH1 0x20 ADD PUSH1 0x0 SWAP1 JUMPDEST DUP3 DUP3 LT ISZERO PUSH2 0x931 JUMPI DUP4 DUP3 SWAP1 PUSH1 0x0 MSTORE PUSH1 0x20 PUSH1 0x0 KECCAK256 ADD DUP1 SLOAD PUSH2 0x8A4 SWAP1 PUSH2 0xEAF JUMP JUMPDEST DUP1 PUSH1 0x1F ADD PUSH1 0x20 DUP1 SWAP2 DIV MUL PUSH1 0x20 ADD PUSH1 0x40 MLOAD SWAP1 DUP2 ADD PUSH1 0x40 MSTORE DUP1 SWAP3 SWAP2 SWAP1 DUP2 DUP2 MSTORE PUSH1 0x20 ADD DUP3 DUP1 SLOAD PUSH2 0x8D0 SWAP1 PUSH2 0xEAF JUMP JUMPDEST DUP1 ISZERO PUSH2 0x91D JUMPI DUP1 PUSH1 0x1F LT PUSH2 0x8F2 JUMPI PUSH2 0x100 DUP1 DUP4 SLOAD DIV MUL DUP4 MSTORE SWAP2 PUSH1 0x20 ADD SWAP2 PUSH2 0x91D JUMP JUMPDEST DUP3 ADD SWAP2 SWAP1 PUSH1 0x0 MSTORE PUSH1 0x20 PUSH1 0x0 KECCAK256 SWAP1 JUMPDEST DUP2 SLOAD DUP2 MSTORE SWAP1 PUSH1 0x1 ADD SWAP1 PUSH1 0x20 ADD DUP1 DUP4 GT PUSH2 0x900 JUMPI DUP3 SWAP1 SUB PUSH1 0x1F AND DUP3 ADD SWAP2 JUMPDEST POP POP POP POP POP DUP2 MSTORE PUSH1 0x20 ADD SWAP1 PUSH1 0x1 ADD SWAP1 PUSH2 0x885 JUMP JUMPDEST POP POP POP POP SWAP1 POP SWAP1 JUMP JUMPDEST PUSH1 0x0 SLOAD PUSH1 0x1 PUSH1 0x1 PUSH1 0xA0 SHL SUB AND CALLER EQ PUSH2 0x964 JUMPI PUSH1 0x40 MLOAD PUSH3 0x461BCD PUSH1 0xE5 SHL DUP2 MSTORE PUSH1 0x4 ADD PUSH2 0x437 SWAP1 PUSH2 0xFB1 JUMP JUMPDEST PUSH1 0x1 PUSH1 0x1 PUSH1 0xA0 SHL SUB DUP2 AND PUSH2 0x9C9 JUMPI PUSH1 0x40 MLOAD PUSH3 0x461BCD PUSH1 0xE5 SHL DUP2 MSTORE PUSH1 0x20 PUSH1 0x4 DUP3 ADD MSTORE PUSH1 0x26 PUSH1 0x24 DUP3 ADD MSTORE PUSH32 0x4F776E61626C653A206E6577206F776E657220697320746865207A65726F2061 PUSH1 0x44 DUP3 ADD MSTORE PUSH6 0x646472657373 PUSH1 0xD0 SHL PUSH1 0x64 DUP3 ADD MSTORE PUSH1 0x84 ADD PUSH2 0x437 JUMP JUMPDEST PUSH2 0x9D2 DUP2 PUSH2 0xB5E JUMP JUMPDEST POP JUMP JUMPDEST PUSH1 0x6 DUP2 DUP2 SLOAD DUP2 LT PUSH2 0x9E5 JUMPI PUSH1 0x0 DUP1 REVERT JUMPDEST SWAP1 PUSH1 0x0 MSTORE PUSH1 0x20 PUSH1 0x0 KECCAK256 ADD PUSH1 0x0 SWAP2 POP SWAP1 POP DUP1 SLOAD PUSH2 0x7E0 SWAP1 PUSH2 0xEAF JUMP JUMPDEST PUSH1 0x60 DUP2 PUSH2 0xA24 JUMPI POP POP PUSH1 0x40 DUP1 MLOAD DUP1 DUP3 ADD SWAP1 SWAP2 MSTORE PUSH1 0x1 DUP2 MSTORE PUSH1 0x3 PUSH1 0xFC SHL PUSH1 0x20 DUP3 ADD MSTORE SWAP1 JUMP JUMPDEST DUP2 PUSH1 0x0 JUMPDEST DUP2 ISZERO PUSH2 0xA4E JUMPI DUP1 PUSH2 0xA38 DUP2 PUSH2 0xF96 JUMP JUMPDEST SWAP2 POP PUSH2 0xA47 SWAP1 POP PUSH1 0xA DUP4 PUSH2 0x1090 JUMP JUMPDEST SWAP2 POP PUSH2 0xA28 JUMP JUMPDEST PUSH1 0x0 DUP2 PUSH8 0xFFFFFFFFFFFFFFFF DUP2 GT ISZERO PUSH2 0xA69 JUMPI PUSH2 0xA69 PUSH2 0xC47 JUMP JUMPDEST PUSH1 0x40 MLOAD SWAP1 DUP1 DUP3 MSTORE DUP1 PUSH1 0x1F ADD PUSH1 0x1F NOT AND PUSH1 0x20 ADD DUP3 ADD PUSH1 0x40 MSTORE DUP1 ISZERO PUSH2 0xA93 JUMPI PUSH1 0x20 DUP3 ADD DUP2 DUP1 CALLDATASIZE DUP4 CALLDATACOPY ADD SWAP1 POP JUMPDEST POP SWAP1 POP DUP2 JUMPDEST DUP6 ISZERO PUSH2 0xB20 JUMPI PUSH2 0xAA9 PUSH1 0x1 DUP3 PUSH2 0x10B2 JUMP JUMPDEST SWAP1 POP PUSH1 0x0 PUSH2 0xAB8 PUSH1 0xA DUP9 PUSH2 0x1090 JUMP JUMPDEST PUSH2 0xAC3 SWAP1 PUSH1 0xA PUSH2 0x10C9 JUMP JUMPDEST PUSH2 0xACD SWAP1 DUP9 PUSH2 0x10B2 JUMP JUMPDEST PUSH2 0xAD8 SWAP1 PUSH1 0x30 PUSH2 0x1044 JUMP JUMPDEST SWAP1 POP PUSH1 0x0 DUP2 PUSH1 0xF8 SHL SWAP1 POP DUP1 DUP5 DUP5 DUP2 MLOAD DUP2 LT PUSH2 0xAF5 JUMPI PUSH2 0xAF5 PUSH2 0xE99 JUMP JUMPDEST PUSH1 0x20 ADD ADD SWAP1 PUSH1 0x1 PUSH1 0x1 PUSH1 0xF8 SHL SUB NOT AND SWAP1 DUP2 PUSH1 0x0 BYTE SWAP1 MSTORE8 POP PUSH2 0xB17 PUSH1 0xA DUP10 PUSH2 0x1090 JUMP JUMPDEST SWAP8 POP POP POP PUSH2 0xA98 JUMP JUMPDEST POP SWAP5 SWAP4 POP POP POP POP JUMP JUMPDEST PUSH1 0x60 DUP6 DUP6 DUP6 DUP6 DUP6 PUSH1 0x40 MLOAD PUSH1 0x20 ADD PUSH2 0xB44 SWAP6 SWAP5 SWAP4 SWAP3 SWAP2 SWAP1 PUSH2 0x10E8 JUMP JUMPDEST PUSH1 0x40 MLOAD PUSH1 0x20 DUP2 DUP4 SUB SUB DUP2 MSTORE SWAP1 PUSH1 0x40 MSTORE SWAP1 POP SWAP6 SWAP5 POP POP POP POP POP JUMP JUMPDEST PUSH1 0x0 DUP1 SLOAD PUSH1 0x1 PUSH1 0x1 PUSH1 0xA0 SHL SUB DUP4 DUP2 AND PUSH1 0x1 PUSH1 0x1 PUSH1 0xA0 SHL SUB NOT DUP4 AND DUP2 OR DUP5 SSTORE PUSH1 0x40 MLOAD SWAP2 SWAP1 SWAP3 AND SWAP3 DUP4 SWAP2 PUSH32 0x8BE0079C531659141344CD1FD0A4F28419497F9722A3DAAFE3B4186F6B6457E0 SWAP2 SWAP1 LOG3 POP POP JUMP JUMPDEST DUP3 DUP1 SLOAD PUSH2 0xBBA SWAP1 PUSH2 0xEAF JUMP JUMPDEST SWAP1 PUSH1 0x0 MSTORE PUSH1 0x20 PUSH1 0x0 KECCAK256 SWAP1 PUSH1 0x1F ADD PUSH1 0x20 SWAP1 DIV DUP2 ADD SWAP3 DUP3 PUSH2 0xBDC JUMPI PUSH1 0x0 DUP6 SSTORE PUSH2 0xC22 JUMP JUMPDEST DUP3 PUSH1 0x1F LT PUSH2 0xBF5 JUMPI DUP1 MLOAD PUSH1 0xFF NOT AND DUP4 DUP1 ADD OR DUP6 SSTORE PUSH2 0xC22 JUMP JUMPDEST DUP3 DUP1 ADD PUSH1 0x1 ADD DUP6 SSTORE DUP3 ISZERO PUSH2 0xC22 JUMPI SWAP2 DUP3 ADD JUMPDEST DUP3 DUP2 GT ISZERO PUSH2 0xC22 JUMPI DUP3 MLOAD DUP3 SSTORE SWAP2 PUSH1 0x20 ADD SWAP2 SWAP1 PUSH1 0x1 ADD SWAP1 PUSH2 0xC07 JUMP JUMPDEST POP PUSH2 0xC2E SWAP3 SWAP2 POP PUSH2 0xC32 JUMP JUMPDEST POP SWAP1 JUMP JUMPDEST JUMPDEST DUP1 DUP3 GT ISZERO PUSH2 0xC2E JUMPI PUSH1 0x0 DUP2 SSTORE PUSH1 0x1 ADD PUSH2 0xC33 JUMP JUMPDEST PUSH4 0x4E487B71 PUSH1 0xE0 SHL PUSH1 0x0 MSTORE PUSH1 0x41 PUSH1 0x4 MSTORE PUSH1 0x24 PUSH1 0x0 REVERT JUMPDEST PUSH1 0x0 DUP3 PUSH1 0x1F DUP4 ADD SLT PUSH2 0xC6E JUMPI PUSH1 0x0 DUP1 REVERT JUMPDEST DUP2 CALLDATALOAD PUSH8 0xFFFFFFFFFFFFFFFF DUP1 DUP3 GT ISZERO PUSH2 0xC89 JUMPI PUSH2 0xC89 PUSH2 0xC47 JUMP JUMPDEST PUSH1 0x40 MLOAD PUSH1 0x1F DUP4 ADD PUSH1 0x1F NOT SWAP1 DUP2 AND PUSH1 0x3F ADD AND DUP2 ADD SWAP1 DUP3 DUP3 GT DUP2 DUP4 LT OR ISZERO PUSH2 0xCB1 JUMPI PUSH2 0xCB1 PUSH2 0xC47 JUMP JUMPDEST DUP2 PUSH1 0x40 MSTORE DUP4 DUP2 MSTORE DUP7 PUSH1 0x20 DUP6 DUP9 ADD ADD GT ISZERO PUSH2 0xCCA JUMPI PUSH1 0x0 DUP1 REVERT JUMPDEST DUP4 PUSH1 0x20 DUP8 ADD PUSH1 0x20 DUP4 ADD CALLDATACOPY PUSH1 0x0 PUSH1 0x20 DUP6 DUP4 ADD ADD MSTORE DUP1 SWAP5 POP POP POP POP POP SWAP3 SWAP2 POP POP JUMP JUMPDEST PUSH1 0x0 PUSH1 0x20 DUP3 DUP5 SUB SLT ISZERO PUSH2 0xCFC JUMPI PUSH1 0x0 DUP1 REVERT JUMPDEST DUP2 CALLDATALOAD PUSH8 0xFFFFFFFFFFFFFFFF DUP2 GT ISZERO PUSH2 0xD13 JUMPI PUSH1 0x0 DUP1 REVERT JUMPDEST PUSH2 0xD1F DUP5 DUP3 DUP6 ADD PUSH2 0xC5D JUMP JUMPDEST SWAP5 SWAP4 POP POP POP POP JUMP JUMPDEST PUSH1 0x0 JUMPDEST DUP4 DUP2 LT ISZERO PUSH2 0xD42 JUMPI DUP2 DUP2 ADD MLOAD DUP4 DUP3 ADD MSTORE PUSH1 0x20 ADD PUSH2 0xD2A JUMP JUMPDEST DUP4 DUP2 GT ISZERO PUSH2 0xD51 JUMPI PUSH1 0x0 DUP5 DUP5 ADD MSTORE JUMPDEST POP POP POP POP JUMP JUMPDEST PUSH1 0x0 DUP2 MLOAD DUP1 DUP5 MSTORE PUSH2 0xD6F DUP2 PUSH1 0x20 DUP7 ADD PUSH1 0x20 DUP7 ADD PUSH2 0xD27 JUMP JUMPDEST PUSH1 0x1F ADD PUSH1 0x1F NOT AND SWAP3 SWAP1 SWAP3 ADD PUSH1 0x20 ADD SWAP3 SWAP2 POP POP JUMP JUMPDEST PUSH1 0x20 DUP2 MSTORE PUSH1 0x0 PUSH2 0xD96 PUSH1 0x20 DUP4 ADD DUP5 PUSH2 0xD57 JUMP JUMPDEST SWAP4 SWAP3 POP POP POP JUMP JUMPDEST PUSH1 0x0 DUP1 PUSH1 0x40 DUP4 DUP6 SUB SLT ISZERO PUSH2 0xDB0 JUMPI PUSH1 0x0 DUP1 REVERT JUMPDEST DUP3 CALLDATALOAD PUSH8 0xFFFFFFFFFFFFFFFF DUP2 GT ISZERO PUSH2 0xDC7 JUMPI PUSH1 0x0 DUP1 REVERT JUMPDEST PUSH2 0xDD3 DUP6 DUP3 DUP7 ADD PUSH2 0xC5D JUMP JUMPDEST SWAP3 POP POP PUSH1 0x20 DUP4 ADD CALLDATALOAD PUSH1 0xFF DUP2 AND DUP2 EQ PUSH2 0xDEA JUMPI PUSH1 0x0 DUP1 REVERT JUMPDEST DUP1 SWAP2 POP POP SWAP3 POP SWAP3 SWAP1 POP JUMP JUMPDEST PUSH1 0x0 PUSH1 0x20 DUP3 DUP5 SUB SLT ISZERO PUSH2 0xE07 JUMPI PUSH1 0x0 DUP1 REVERT JUMPDEST DUP2 CALLDATALOAD PUSH1 0x1 PUSH1 0x1 PUSH1 0xA0 SHL SUB DUP2 AND DUP2 EQ PUSH2 0xD96 JUMPI PUSH1 0x0 DUP1 REVERT JUMPDEST PUSH1 0x0 PUSH1 0x20 DUP1 DUP4 ADD DUP2 DUP5 MSTORE DUP1 DUP6 MLOAD DUP1 DUP4 MSTORE PUSH1 0x40 DUP7 ADD SWAP2 POP PUSH1 0x40 DUP2 PUSH1 0x5 SHL DUP8 ADD ADD SWAP3 POP DUP4 DUP8 ADD PUSH1 0x0 JUMPDEST DUP3 DUP2 LT ISZERO PUSH2 0xE73 JUMPI PUSH1 0x3F NOT DUP9 DUP7 SUB ADD DUP5 MSTORE PUSH2 0xE61 DUP6 DUP4 MLOAD PUSH2 0xD57 JUMP JUMPDEST SWAP5 POP SWAP3 DUP6 ADD SWAP3 SWAP1 DUP6 ADD SWAP1 PUSH1 0x1 ADD PUSH2 0xE45 JUMP JUMPDEST POP SWAP3 SWAP8 SWAP7 POP POP POP POP POP POP POP JUMP JUMPDEST PUSH1 0x0 PUSH1 0x20 DUP3 DUP5 SUB SLT ISZERO PUSH2 0xE92 JUMPI PUSH1 0x0 DUP1 REVERT JUMPDEST POP CALLDATALOAD SWAP2 SWAP1 POP JUMP JUMPDEST PUSH4 0x4E487B71 PUSH1 0xE0 SHL PUSH1 0x0 MSTORE PUSH1 0x32 PUSH1 0x4 MSTORE PUSH1 0x24 PUSH1 0x0 REVERT JUMPDEST PUSH1 0x1 DUP2 DUP2 SHR SWAP1 DUP3 AND DUP1 PUSH2 0xEC3 JUMPI PUSH1 0x7F DUP3 AND SWAP2 POP JUMPDEST PUSH1 0x20 DUP3 LT DUP2 EQ ISZERO PUSH2 0x407 JUMPI PUSH4 0x4E487B71 PUSH1 0xE0 SHL PUSH1 0x0 MSTORE PUSH1 0x22 PUSH1 0x4 MSTORE PUSH1 0x24 PUSH1 0x0 REVERT JUMPDEST PUSH1 0x0 DUP1 DUP4 SLOAD DUP2 PUSH1 0x1 DUP3 DUP2 SHR SWAP2 POP DUP1 DUP4 AND DUP1 PUSH2 0xF00 JUMPI PUSH1 0x7F DUP4 AND SWAP3 POP JUMPDEST PUSH1 0x20 DUP1 DUP5 LT DUP3 EQ ISZERO PUSH2 0xF20 JUMPI PUSH4 0x4E487B71 PUSH1 0xE0 SHL DUP7 MSTORE PUSH1 0x22 PUSH1 0x4 MSTORE PUSH1 0x24 DUP7 REVERT JUMPDEST DUP2 DUP1 ISZERO PUSH2 0xF34 JUMPI PUSH1 0x1 DUP2 EQ PUSH2 0xF45 JUMPI PUSH2 0xF72 JUMP JUMPDEST PUSH1 0xFF NOT DUP7 AND DUP10 MSTORE DUP5 DUP10 ADD SWAP7 POP PUSH2 0xF72 JUMP JUMPDEST PUSH1 0x0 DUP11 DUP2 MSTORE PUSH1 0x20 SWAP1 KECCAK256 PUSH1 0x0 JUMPDEST DUP7 DUP2 LT ISZERO PUSH2 0xF6A JUMPI DUP2 SLOAD DUP12 DUP3 ADD MSTORE SWAP1 DUP6 ADD SWAP1 DUP4 ADD PUSH2 0xF51 JUMP JUMPDEST POP POP DUP5 DUP10 ADD SWAP7 POP JUMPDEST POP SWAP5 SWAP9 SWAP8 POP POP POP POP POP POP POP POP JUMP JUMPDEST PUSH4 0x4E487B71 PUSH1 0xE0 SHL PUSH1 0x0 MSTORE PUSH1 0x11 PUSH1 0x4 MSTORE PUSH1 0x24 PUSH1 0x0 REVERT JUMPDEST PUSH1 0x0 PUSH1 0x0 NOT DUP3 EQ ISZERO PUSH2 0xFAA JUMPI PUSH2 0xFAA PUSH2 0xF80 JUMP JUMPDEST POP PUSH1 0x1 ADD SWAP1 JUMP JUMPDEST PUSH1 0x20 DUP1 DUP3 MSTORE DUP2 DUP2 ADD MSTORE PUSH32 0x4F776E61626C653A2063616C6C6572206973206E6F7420746865206F776E6572 PUSH1 0x40 DUP3 ADD MSTORE PUSH1 0x60 ADD SWAP1 JUMP JUMPDEST PUSH1 0x20 DUP1 DUP3 MSTORE PUSH1 0x22 SWAP1 DUP3 ADD MSTORE PUSH32 0x5468697320766F74696E672073657373696F6E20616C726561647920656E6465 PUSH1 0x40 DUP3 ADD MSTORE PUSH2 0x3217 PUSH1 0xF1 SHL PUSH1 0x60 DUP3 ADD MSTORE PUSH1 0x80 ADD SWAP1 JUMP JUMPDEST PUSH1 0x0 DUP3 MLOAD PUSH2 0x103A DUP2 DUP5 PUSH1 0x20 DUP8 ADD PUSH2 0xD27 JUMP JUMPDEST SWAP2 SWAP1 SWAP2 ADD SWAP3 SWAP2 POP POP JUMP JUMPDEST PUSH1 0x0 PUSH1 0xFF DUP3 AND PUSH1 0xFF DUP5 AND DUP1 PUSH1 0xFF SUB DUP3 GT ISZERO PUSH2 0x1061 JUMPI PUSH2 0x1061 PUSH2 0xF80 JUMP JUMPDEST ADD SWAP4 SWAP3 POP POP POP JUMP JUMPDEST PUSH1 0x0 PUSH3 0xFFFFFF DUP1 DUP4 AND DUP2 DUP6 AND DUP1 DUP4 SUB DUP3 GT ISZERO PUSH2 0x1087 JUMPI PUSH2 0x1087 PUSH2 0xF80 JUMP JUMPDEST ADD SWAP5 SWAP4 POP POP POP POP JUMP JUMPDEST PUSH1 0x0 DUP3 PUSH2 0x10AD JUMPI PUSH4 0x4E487B71 PUSH1 0xE0 SHL PUSH1 0x0 MSTORE PUSH1 0x12 PUSH1 0x4 MSTORE PUSH1 0x24 PUSH1 0x0 REVERT JUMPDEST POP DIV SWAP1 JUMP JUMPDEST PUSH1 0x0 DUP3 DUP3 LT ISZERO PUSH2 0x10C4 JUMPI PUSH2 0x10C4 PUSH2 0xF80 JUMP JUMPDEST POP SUB SWAP1 JUMP JUMPDEST PUSH1 0x0 DUP2 PUSH1 0x0 NOT DIV DUP4 GT DUP3 ISZERO ISZERO AND ISZERO PUSH2 0x10E3 JUMPI PUSH2 0x10E3 PUSH2 0xF80 JUMP JUMPDEST POP MUL SWAP1 JUMP JUMPDEST PUSH1 0x0 DUP7 MLOAD PUSH2 0x10FA DUP2 DUP5 PUSH1 0x20 DUP12 ADD PUSH2 0xD27 JUMP JUMPDEST DUP7 MLOAD SWAP1 DUP4 ADD SWAP1 PUSH2 0x110E DUP2 DUP4 PUSH1 0x20 DUP12 ADD PUSH2 0xD27 JUMP JUMPDEST DUP7 MLOAD SWAP2 ADD SWAP1 PUSH2 0x1121 DUP2 DUP4 PUSH1 0x20 DUP11 ADD PUSH2 0xD27 JUMP JUMPDEST DUP6 MLOAD SWAP2 ADD SWAP1 PUSH2 0x1134 DUP2 DUP4 PUSH1 0x20 DUP10 ADD PUSH2 0xD27 JUMP JUMPDEST DUP5 MLOAD SWAP2 ADD SWAP1 PUSH2 0x1147 DUP2 DUP4 PUSH1 0x20 DUP9 ADD PUSH2 0xD27 JUMP JUMPDEST ADD SWAP8 SWAP7 POP POP POP POP POP POP POP JUMP INVALID LOG2 PUSH5 0x6970667358 0x22 SLT KECCAK256 0x5D 0xCD 0xE2 PUSH28 0x4D22BB8A776B13A461AE60994E0EB6E929DB655AC3F28A06B0BF966C PUSH5 0x736F6C6343 STOP ADDMOD SIGNEXTEND STOP CALLER LOG2 PUSH5 0x6970667358 0x22 SLT KECCAK256 PUSH6 0xE03F0DAC4B98 0xD7 RETURNDATACOPY SWAP11 0x23 EXTCODEHASH SWAP8 0xC 0xAA NUMBER RETURNDATASIZE CODESIZE 0xEC GASLIMIT 0x2E OR 0xF9 ISZERO PUSH27 0x591B3B534FB80C64736F6C634300080B0033000000000000000000 ",
    "sha1": "6ee673f8e887c4cd35792ee8fa2cb096fc3e0d4c",
    "source": "// SPDX-License-Identifier: MIT\npragma solidity ^0.8.0;\n\nimport \"@openzeppelin/contracts/token/ERC20/IERC20.sol\";\n\nimport \"./VotingSession.sol\";\n\ncontract VotingHub {\n    string[] public votingSessionSymbols;\n    mapping(string => address) public addressesOfVotingSessions;\n\n    function createVotingSession(\n        string memory symbol,\n        uint256 start,\n        uint256 end,\n        uint8 numOfVotes\n    ) public returns (address) {\n        require(\n            addressesOfVotingSessions[symbol] == address(0),\n            \"Voting session with this symbol already exists.\"\n        );\n\n        VotingSession newVotingSession = new VotingSession(\n            symbol,\n            start,\n            end,\n            numOfVotes\n        );\n\n        newVotingSession.transferOwnership(msg.sender);\n\n        votingSessionSymbols.push(symbol);\n        addressesOfVotingSessions[symbol] = address(newVotingSession);\n\n        return address(newVotingSession);\n    }\n\n    function getAllVotinSessionsSymbols()\n        public\n        view\n        returns (string[] memory)\n    {\n        return votingSessionSymbols;\n    }\n}\n",
    "sourcePath": "contracts/VotingHub.sol",
    "type": "contract",
    "deployment": {
        "address": "0xa0d2D765CEe585cDb0e7F60E5014941b1317DE24",
        "chainid": "4",
        "blockHeight": 9966626
    }
}